:020000040800F2
:100000000002002091010008013600089301000859
:100010009301000893010008930100089301000870
:100020009301000893010008930100089301000860
:100030009301000893010008930100089301000850
:100040009301000893010008930100089301000840
:100050009301000893010008930100089301000830
:1000600093010008E140000811470008F14500082D
:1000700071430008930100089301000893010008F0
:10008000A13A0008930100089301000893010008B9
:10009000930100089301000893010008713C0008D7
:1000A00093010008930100089301000893010008E0
:1000B00093010008930100089301000893010008D0
:1000C00072B6244880F30888234880F30988022008
:1000D00080F31488BFF36F8F04F00AFC03F038FC40
:1000E0001E481F491B4A914202DA08600431FAE7B0
:1000F0001C49194A914202DA08600431FAE71A49A8
:100100001A4A1B4B9A4204DA086810600431043220
:10011000F8E700201749184A914202DA08600431D2
:10012000FAE704F0ADFB04F0DBFB144C144DAC42D9
:1001300003DA216888470434F9E701F0C9FD114C5E
:10014000114DAC4203DA216888470434F9E70F49BE
:1001500008470000000200200004002055555555B6
:100160000000002000020020305B00080004002096
:100170000004002000040020B80F0020C000000888
:10018000C0000008C0000008C0000008D1480008F6
:1001900096E700F000F8FEE7F0B544464D465646B7
:1001A0005F46F0B46B46CB60C3689D46F0BCA0468A
:1001B000A946B246BB46F0BD02F0F2FB62B6281C6F
:1001C000A047002002F094FD02F012FC02F010FEA5
:1001D00002F0E6FB014A024B1360FEE704ED00E08B
:1001E00000000080F0B556464D465F464446F0B4E8
:1001F00043024500C70F83B08A465C0A2E0EB946FB
:1002000041D0FF2E26D080231B042343DC00002393
:1002100098469B467F3E53465B025D0A53465A0012
:10022000DB0F120E9A4639D0FF2A33D080231B04ED
:100230002B43DD0000237F3A5146B21A46467940EF
:10024000081C01921E430F2E00D976E07E4AB600AC
:100250009659B746002C30D108239846063B9B465A
:10026000D9E780230021DB03FF245B02E4055B0A5E
:10027000C90723430B43181C03B03CBC9046994666
:10028000A246AB46F0BD002C28D104239846033B80
:100290009B46C0E7002D1FD1022302E0002D11D1A3
:1002A0000123B21A50464646784001921E430F2E53
:1002B00027D86649B60089598F460C239846093BD2
:1002C0009B46A8E7281C01F0E1FC7622431F52421E
:1002D0009D40121A0023AFE70323ADE7201C01F075
:1002E000D5FC431F9C4076235B421E1A0023984690
:1002F0009B4690E70025D1469B465B464846022B2D
:100300006FD10121FF2401400023AEE77E23019A33
:100310005B429B1A1B2B6DDD01214B4619400024CB
:100320000023A2E78023DB031C4249D18023DB03A7
:1003300023435B025B0A391C96E763016D01AB4204
:1003400037D389461A2001215B1B01241E1C49005A
:100350005B00002E01DBAB4201D35B1B2143013864
:100360000028F3D1581E83410B431D1C019C7F3490
:10037000002CCBDD6B0704D00F232B40042B00D0C7
:1003800004352B0104D5019A314B8032141C1D40D9
:10039000FE2C07DD4B460121FF241940002364E7B2
:1003A000251CAAE701214A46AB015B0AE4B21140D1
:1003B0005BE7019A8946013A01921B200021C4E7BC
:1003C0001D4207D023435B025B0A391C4CE7002522
:1003D0006302ABD58023DB032B435B025B0A5146F0
:1003E00042E7032B25D0012BC0D10121002401407D
:1003F00000233AE7291CD9402B1C019A9E329340D6
:100400005D1EAB410B435A0704D00F221A40042A49
:1004100000D004335A0105D54B460121012419406F
:10042000002322E701214A469B015B0A1140002478
:100430001BE7802301214A46DB032B435B020A4072
:100440005B0A111C10E7C0462456000864560008D9
:10045000FFFFFFF7F0B55F4656464D464446F0B401
:1004600045024600C40F83B00F1C6D0A360EA3462A
:1004700045D0FF2E25D080231B041D4300239A4620
:10048000ED007F3E01937B025B0A98467800FB0FEC
:10049000000E994640D0FF2838D0802342461B04E6
:1004A0001343DB00984600237F384A46019F3018EB
:1004B0006240411C1F430F2F69D87D4EBF00F65983
:1004C000B746002D45D108230193063B9A46DAE74B
:1004D00093465346022B2FD15B46012400251C4036
:1004E000FF236D02DB056D0AE4071D432543281C2D
:1004F00003B03CBC90469946A246AB46F0BD002DE9
:100500002CD104230193033B9A46BCE743465A424D
:1005100053410322D31AC8E742460123002AC4D01C
:10052000404601F0B3FB4246431F9A4076235B42AC
:10053000181A90460023B8E7032B00D1ADE0012B39
:1005400000D08CE05B4654461C40E4B200230025FA
:10055000C7E70C230193093B9A4694E7281C01F056
:1005600095FB7626431F9D4000237642361A019361
:100570009A4688E780250024ED03FF23B1E745462E
:10058000CB469A46A5E7454693469A46A1E7434699
:100590002C041B0C9C46230C444626041C1C360CC5
:1005A0002F0C7443351C66467D4373437743EB1829
:1005B000260C9E19B54203D980235B029C466744F2
:1005C00024043304240C1B199D016C1EA5419B0EB1
:1005D000360C2B43BD19AD011D432B0104D501235E
:1005E00068081D400543081C031C7F33002B2CDDCD
:1005F000690704D00F212940042900D004352901BE
:1006000003D52C4B1D40031C8033FE2B17DD01242A
:10061000FF231440002564E78020C003054209D071
:100620004346034206D1454605436D026D0A4C46DA
:10063000FF2356E705436D026D0AFF2351E70124AE
:10064000AD016D0ADBB214404BE77E235B421B1AFF
:100650001B2B07DD012400231440002541E7081C63
:100660005A46C1E79E30291C8540D940681E854105
:100670000D436B0704D00F232B40042B00D004350F
:100680006B0104D5012401231440002529E701242E
:10069000AD016D0A1440002323E78023DB031D43D3
:1006A00001245B466D0223401C1C6D0AFF2318E7E2
:1006B000A4560008FFFFFFF7F0B55F4656464D46CB
:1006C0004446F0B40F0387B098464D003B0BCC0F67
:1006D000061C924681469B466D0D01946BD0664B7D
:1006E0009D4235D080275B467F031F43F300994628
:1006F000624BFF00400F9C4607430023BB46002689
:1007000065440093424617035000D20F53463F0BF7
:10071000400D904600D172E0574A904267D0802346
:100720005B031F435346554A5B0FFF001F4394462C
:1007300053460021DB0060444246624092462D1A37
:100740000E430F2E00D9A1E04D48B60080598746D0
:100750005B461E4300D076E000239B469946023359
:1007600008260093CEE799464346BB460193009185
:10077000009B022B6BD1019B9A460021534601221C
:10078000002789461A403C4B00213F030C0D2405ED
:100790003F0B27433B4C1B0527401F437F00D207DD
:1007A0007F0817434846391C07B03CBC9046994621
:1007B000A246AB46F0BD03433ED05B46002B00D1C2
:1007C0009CE1584601F062FA2823311C1B1A021CD6
:1007D0005F46D940083A97400B1C96403B439B46E6
:1007E000B1460023284D00262D1A00938AE7524671
:1007F00003213A43A0D10027002302219CE752465F
:100800003A4315D0002F00D185E1381C01F03EFAA3
:10081000021C28215046891A131CC8405146083B27
:1008200099409F400B1C074317480021801A83E71B
:100830000027002301217FE700239B4699460133CF
:10084000042600935EE703230C2600935AE7032B4C
:1008500000D13CE2012B00D0BFE11A1C019B1A40E1
:1008600000210023002789468EE700238027994630
:1008700000223F03004B87E7FF07000001FCFFFF5A
:10088000E4560008FFFF0F800DFCFFFFBB4500D9B9
:1008900051E100D14CE14A46039200225C46904669
:1008A000013D180E3F0238431B020193030C994689
:1008B00003041B0C4946061C201C1F1C009301F05E
:1008C00053F9021C7A4302904946201C171C01F080
:1008D000D1F9039B09041B0C19438F420CD9029BCD
:1008E0008919013B8E4200D952E18F4200D84FE175
:1008F000029B8919023B0293CC1B201C494601F044
:1009000033F9009F834647434946201C01F0B2F962
:10091000039A0B041404240C23439F420DD95A4616
:100920009B19013A9E4200D930E19F4200D82DE147
:100930000222524294469B19E344029ADB1B17049D
:100940005A463A439346019C170C220C101C049201
:100950005A4611042204120C141C090C7C43059203
:100960004A43414347436118100C09188C4203D98C
:1009700080204002844667440C0C12040804120CC8
:100980003C198118A34200D2E5E000D1DFE01F1B33
:1009900043465C1AA04592415242BF1AB74200D169
:1009A0000EE1381C494601F0DFF8009B02904343FA
:1009B0004946381C984601F05DF9230C0F041F438B
:1009C000B8450CD9029BBF19013BBE4200D9FBE0E0
:1009D000B84500D8F8E0029BBF19023B029343469A
:1009E000FF1A4946381C01F0BFF8009B03904343AF
:1009F0004946381C984601F03DF924040904240CAA
:100A0000214388450CD9039B8919013B8E4200D9AB
:100A1000DCE0884500D8D9E0039B8919023B0393A9
:100A20004346C91A029B039A1B04059C1A43100CE7
:100A300013049146221C049F1B0C5A4344437B43DE
:100A40007843E318170CDB199C4203D98024640215
:100A5000A44660441C0C12041B04120C00199B18C1
:100A6000814200D296E000D1FCE04A4601231A43BD
:100A700091469B4BEB18002B00DC99E04A4652074D
:100A80000AD00F2249460A40042A05D004314945BC
:100A900092418946524293445A46D20106D55A465B
:100AA000904B1A4080239346DB00EB188E4A93420A
:100AB00000DD62E64A465946D208490711435A46C4
:100AC00089465702514601225B053F0B5B0D0A40E8
:100AD0005AE680205A460003024208D0074206D157
:100AE00007433F0399463F0B4246804B4CE65F4627
:100AF00007433F033F0B221C7C4B45E601F0C6F841
:100B0000031C2030272800DC5EE6083B9E400023C3
:100B1000B346994665E6504601F0B8F8021C20320B
:100B2000272A00DC75E657460838874000237BE615
:100B3000994500D2AFE65A46594654084A46C80776
:100B40005208024303924A46D2079046A9E600277C
:100B5000884500D31CE7019F5A46BC46E044B8458F
:100B6000BF417F42BF19FF18013ABE4206D2BC42C4
:100B70005FD800D19FE03F1B934609E7B742FAD107
:100B8000019B4345F3D9371B934601E79346D4E6CF
:100B90000293B1E64A468919013A8E4218D9914624
:100BA000814200D061E7019A9A4200D05DE760E798
:100BB0004F4F7F1B382F13DD012253461A404FE65B
:100BC00001235B42994654E7029308E7039327E722
:100BD00088423CD874D0914647E7019B9A4648E743
:100BE0001F2F44DC434B4A469C465B466544FA4013
:100BF000AB4013434A46AA40151C6A1E95415A460B
:100C0000FA402B43171C5A0709D00F221A40042A16
:100C100005D01A1D9A429B415B42FF18131C3A02F1
:100C20003ED55346012200211A4000270123894660
:100C3000AAE502235B429C46019AE3449446E044C1
:100C400090459B415B429B19DF193F1BA0E6019F2A
:100C50004A467C00BC42BF417F42BF19023AC919D3
:100C600001949CE7002B95D1002201929BE75A4604
:100C7000214B5B1BDA40202F27D0204B9C465B4644
:100C80006544AB4049460B43591E8B411343072231
:100C900000271A4007D00F2200271A40042AB8D193
:100CA0007A077F023F0BDB08134399460122534624
:100CB0001A40002368E54145BBD89346002767E604
:100CC000019C9C42C3D391466DE70023DAE780275D
:100CD0005B463F031F433F033F0B019A034B53E522
:100CE000FF030000FFFFFFFEFE070000FF070000FC
:100CF00002FCFFFF1E040000E2FBFFFF3E040000B9
:100D0000F0B55F4656464D464446F0B4051C061CF9
:100D1000080387B099464F00030BCC0F92469B46C1
:100D20007F0D019467D06C4B9F4236D080205B468C
:100D300040031843C0006B0F1843684B83469C4622
:100D400000239846EE00674400934B4649461D0336
:100D5000C90F5B0052462D0B5B0D894600D16EE03A
:100D60005D498B4264D080205C4940038C46002161
:100D70000543ED00500F0543D20063444846FF1879
:100D80007B1C9A46009B604002900B430F2B00D9BE
:100D9000ACE053489B00C3589F465B461D4300D0C0
:100DA00082E00823009300239B46023300269846E6
:100DB000CBE7029B01934346022B59D10124002526
:100DC0000026019B1C40444B00212D030A0D1205F7
:100DD0002D0B1543434A1B0515401D436D00E407C9
:100DE0006D082543301C291C07B03CBC9046994631
:100DF000A246AB46F0BD2B434ED05B46002B00D144
:100E000085E1584600F042FF021C2823291C9B1A4A
:100E1000161C5846D940083EB0400B1CB540034351
:100E20009B462E1C0023304F0093BF1A98468CE738
:100E3000514629432ED10025002202219EE751462A
:100E4000294323D0002D00D154E1281C00F01EFFBF
:100E5000031C28215046C91A1A1CC8405146083A9A
:100E6000914095400A1C05431F480021C31A85E79D
:100E7000032B00D1C2E1012B00D06DE14446019B60
:100E800000251C40E4B2002300269DE70025002237
:100E9000012173E7032171E70423009300239B469C
:100EA00001330026984650E70C230093093B9846EF
:100EB0004BE7802500242D030026074B84E74B4693
:100EC000AB46161C0193884675E7029BAB46161C81
:100ED000019388466FE7C046FF07000001FCFFFF53
:100EE00024570008FFFF0F800DFCFFFF330C360472
:100EF000360C9C46331C140C1204120C53439846B7
:100F0000634653439946634663430193331C41460A
:100F10006343090C4B445B18994505D98020400276
:100F20008146019949440191190C039141460904F4
:100F3000090C1B045B1804932B0C9846331C2D04DE
:100F4000290C4B43604600934346654658435E4335
:100F5000009B4D431B0C9946AE194E448446B54246
:100F600003D980235B029946CC44350C2B1C039893
:100F7000634484460593009B36041B041B0CF31842
:100F80009C446046039058460504060C280C844691
:100F90005043351C81466046654344434846000C37
:100FA0008346724314195C44A24203D98022520240
:100FB00093465D44220CAD184A461204120C2404D8
:100FC0004046A41862464A43714346436046009631
:100FD000464670438046100C84468844E0444145B0
:100FE00005D9802149028C460099614400910198FD
:100FF00003998446614499429B415B429946059816
:10100000434684461204120C1B049B1863449C46FE
:10101000AB4683429B4140460A19CC44A2428941D7
:10102000E344CC45B6415C46000C804649427642DA
:101030005B426418334398448C428941AB459B41E1
:1010400049425B4219430D1C009B4544EE18760251
:10105000E50D2E43B346049B56021E43731E9E416C
:101060005B46D20D324366021643DB010AD50123EB
:10107000334076081E435B46DB071E435B465B0836
:101080009B465746634BFB18002B5ADD720709D06D
:101090000F223240042A05D0321DB242B6417642B8
:1010A000B344161C5A46D20106D55A465A4B1A402A
:1010B00080239346DB00FB18584A934234DD012419
:1010C000029B00251C400026554B7DE680205B4698
:1010D0000003034208D0054206D105432D032D0B22
:1010E0004C46161C4E4B6FE65D4605432D032D0BFB
:1010F0004B4B69E6504600F0C9FD031C2033272BFB
:1011000000DCA6E65546083885400022ACE6281CDF
:1011100000F0BCFD021C2032272A00DC75E60838EE
:1011200085400026AB467DE65A46F6085207164330
:101130005A4601245502029A5B052D0B5B0D1440A3
:1011400042E6384DED1B382D0ADD0124029B0025B7
:101150001C400026002337E6019B5746029391E787
:101160001F2D25DC304B321C9C466744BE405B463D
:10117000BB40371CEA407E1EB74113433B431E1C55
:101180005B46EB401D1C730709D00F233340042B33
:1011900005D0331DB342B6417642AD191E1C2B0259
:1011A00020D50124029B00251C40002601230BE6CC
:1011B0005A461E4BDB1BDA40131C202D1CD01C4A48
:1011C00094465A466744BA40171C3E43721E9641E5
:1011D0001E4307230025334007D00F23002533404B
:1011E000042BD6D16B076D022D0B0124F6081E438C
:1011F000029B1C400023E7E50027E6E780255B46CD
:1012000001242D031D43019B2D0323401C1C2D0B8A
:10121000034BD9E5FF030000FFFFFFFEFE070000C0
:10122000FF07000002FCFFFF1E040000E2FBFFFFBF
:101230003E040000F0B54D4644465F465646F0B4C5
:101240000E1C111C3203520A470F1743C5001A0324
:101250005800DB0F9946520A4B0F83B01A43CB005C
:101260000193CF4B7400F60F640DB046400D9842C9
:1012700000D1E8E00123494659400B1C9E4200D1B1
:10128000B1E0261A002E00DC1CE1002842D1131C1C
:1012900001990B4300D0E6E06B0700D18EE00F23ED
:1012A0002B40042B00D189E02A1DAA42AD418023A6
:1012B000012641466D427F191B043B400E40151C20
:1012C000002B00D183E0B64B01349C4200D116E1E3
:1012D0003A1CB44BED081A4050076405520205430E
:1012E000120B640D002112030B0D1B056405120B7C
:1012F0001A436308AC4CF60714401C4364006408AE
:101300003443281C211C03B03CBC90469946A2469D
:10131000AB46F0BDA24B9C42BED080231B041A43B7
:10132000382E00DD03E11F2E00DD3FE12020831B6E
:101330009946131C49468B409C46019B6046F340EE
:1013400003430198F2408840011C481E81410B4331
:10135000EB1A9D4280411D1CBA1A4042171A3B02EB
:1013600000D4A8E07A02560A002E00D1CAE0301C50
:1013700000F08CFC031C083B1F2B00DDCBE0282277
:10138000291C121AD1409E400A1C9D4032439C42A7
:1013900000DDC8E01C1B671C1F2F00DDEDE01F23D4
:1013A000291C1C1B131CA540A340F9406C1EA54121
:1013B000FA4019430D43171C00246DE780230126D2
:1013C00042461B043B401640002B00D07BE7744B89
:1013D000ED0878070543FA089C423BD012036405E8
:1013E000120B640D7EE7231A9A46002B00DCA5E061
:1013F000002844D06A48844200D14DE78020000490
:1014000002435346382B00DC1CE1019B1A43511E5A
:101410008A41D1B200224919A94280410D1CD2193A
:10142000404217183B0246D55D4B01349C4200D127
:1014300069E101205B4A6B083A4028401843D50710
:101440000543570828E7131C01990B4300D111E706
:101450004B4613E72B1C134351D080231B031A4325
:101460001203120B3EE7013E002E00D080E0691A05
:101470008D429B41BA1A5B42D71A0D1C6FE7101CB4
:10148000019B184300D107E701235B429C46E244DD
:101490005346002B00D002E1019BD2195919A942F1
:1014A0009B415B42D7180D1CBCE76346034300D148
:1014B00028E1071C65466B0700D0F0E6012643468D
:1014C0001E4084E7002E00D081E0601C4005400DE6
:1014D000012800DC07E10199681A84466545B64198
:1014E000B81A7642861B300200D4A1E08C464D1B10
:1014F000AC458941D21B4942561A984634E700222E
:101500000025EFE6281C00F0C1FB2030031C083B3F
:101510001F2B00DC33E7021C283A95402A1C0025CB
:101520009C4200DC36E71F4FE41A1740B4E6019BEB
:101530001A43511E8A41D3B2002209E7002B00D082
:1015400001E1601C43055B0D012B00DCB0E0144B96
:10155000984200D11EE1019BD2195919A9429B4121
:101560005B42D2184908D5070D435708041C93E67F
:101570000B4B9C4200D0D3E68EE6211C131C1F3976
:10158000CB40191C202F00D18EE03F231C1BA24012
:1015900015436A1E954100270D4300248BE7C04682
:1015A000FF070000FFFF7FFFFFFF0F80331C101CB1
:1015B000203BD840202E79D040239B1B9A40131CFF
:1015C000019A1343591E8B4100220343C0E6002CAD
:1015D00053D0C74CA04200D1B0E08024714289466C
:1015E000240427434946382900DDCDE01F2900DDCA
:1015F00059E120243E1C611A8E408A46B046494675
:101600002E1CCE405146B4468D406446464649465F
:1016100026436C1EA541CF4035430199D71B8C460C
:101620004D1BAC4592415242BF1A041C984696E6A7
:1016300063466546334300D096E600260027002423
:101640000025C4E61F2B61DC2020C31A9B46131C17
:1016500059468B4051469946019BCB409C464B4690
:10166000604603439C465B46019999406346481E89
:10167000814119435346DA40CDE63C1C2C435DD0F2
:10168000F1438946002955D10199D21B8C464D1B47
:10169000AC4589414942571A041C98465FE6944874
:1016A000844200D0ADE6F7E5002271E7002387E72A
:1016B0003B1C2B43002C00D0DAE0002B00D113E1BF
:1016C000131C01990B4300D1E6E54919A9429B413E
:1016D000D2195B42D7183B0200D421E1854B0D1C87
:1016E0001F40041CD8E5381C2843002C40D100289A
:1016F00000D083E0101C0199084303D0171C0D1C77
:101700009846C9E500260027002560E65046131CD0
:101710002038C340181C5346202B00D1C1E0402381
:1017200051465B1A9A40019911434A1E9141002289
:10173000014370E66E4CA04200D053E7171C019D98
:10174000041C9846A8E5002C28D13C1C2C4300D151
:101750008AE0DB439A46002B00D082E0019BD2193D
:101760009C4665449D42894149425718041C59E6EC
:1017700000285BD1101C0199084300D1A4E0171C7C
:101780000D1C98465A4C87E53D436F1EBD4100270E
:10179000EDB242E7041C0027002518E6544CA04295
:1017A00062D0534680245B429A4624042743534622
:1017B000382B00DD8EE01F2B00DD9DE02024E31A96
:1017C0009B463B1C59468B40514699462B1CCB40AF
:1017D0009C464B46644623439C465B469D4063467D
:1017E0006C1EA541CF401D43019BBF189C4665441C
:1017F0009D4292415242BF18041C13E6101C0199ED
:10180000084300D148E5681A844685428041BE1AE3
:101810004042301A060200D447E68C464D1BAC45C8
:101820008941D21B4942571A984635E5101C019947
:10183000084334D080247807ED08FF0824032843A8
:10184000274208D0D608264205D1C90852070A43C4
:10185000101C371C9846FF00420F1743C500244C4C
:101860001AE5234CA042A2D1171C019D041C13E5CC
:10187000002B35D0131C01990B4310D0802478071E
:10188000ED08FF08240328432742E4D0D30823426D
:10189000E1D1C90852070A43101C1F1CDBE7144C96
:1018A000FAE400223FE74C463E1C203CE640494615
:1018B000341C202932D04026761AB7403D436F1E93
:1018C000BD4100272543A8E680270026FF03084CDA
:1018D00000257CE53D436F1EBD410027EDB283E747
:1018E000171C019D024CD7E4171C019DD4E4C0468F
:1018F000FF070000FFFF7FFF54463B1C203CE340F6
:101900001C1C5346202B0DD0402351465B1A9F4090
:101910003D436F1EBD410027254365E70027CDE706
:101920000D1CC8E50027F3E738B5041E16D0C50F17
:1019300000D04442201C00F0A9F9174B1B1A0A28BA
:1019400021DC021C211C153291400A1C0B21081AB3
:10195000C4405B052403240B5B0D03E0002500233A
:10196000002400220021101C24030A0D1205240B60
:1019700014430A4A1B0514401C436400ED07640825
:101980002C43211C38BD0B3884405B052403240BF9
:101990005B0D0022E6E7C0461E040000FFFF0F803B
:1019A0004200120E511C38B5C9B243025D0AC40F81
:1019B000012915DDE02189008C466D071B0B62446F
:1019C0000021281C0D0D2D052B431C4D52052B40CD
:1019D000520813435B00E4075B082343191C38BD1E
:1019E000002A15D1002D1FD0281C00F04FF90A281D
:1019F0001DDC0B232A1C1B1ADA40131C021C153297
:101A000095400F4A1B03121A52051B0B520DD7E7C4
:101A1000002D06D080221B0B120313436D07094AC9
:101A2000CEE7084A0023CBE700220023C8E7031CC7
:101A30000B3B9D402B1C0025E3E7C046FFFF0F80BA
:101A400089030000FF07000070B50B034D00440F31
:101A50006D0D5B0A23436C1C6405C90FC200640D45
:101A6000012C2ADD3B4C2C19FE2C1ADC002C35DD18
:101A70008001451EA841DB000343520F13435A0760
:101A800004D00F221A40042A00D004338022D2044A
:101A90001A4027D00134FF2C03D09B015B0AE4B22B
:101AA00001E0FF2400235B02E4055B0A23435B00A3
:101AB000C9075B080B43181C70BD002D06D11343EA
:101AC0000ED100245B025B0AE4B2ECE71A43E8D0D3
:101AD0008020DB0080040343FF24D0E717340CDAB6
:101AE00005230024DB08FF2CECD1002B2DD0802215
:101AF000D20313435B025B0AD5E780241648240413
:101B00002343401B1F280DDC144CA4466544AB4006
:101B10001C1C131CAB405D1EAB41C240234313434E
:101B20000024ACE71E1C0E4C641BE640341C20282D
:101B30000DD00C4884466544AB401D1C2A43531EFF
:101B40009A41131C2343002499E70023ABE70025A7
:101B5000F4E7C04680FCFFFF9E03000082FCFFFF0D
:101B60007E030000A2FCFFFF002243088B4274D3D7
:101B700003098B425FD3030A8B4244D3030B8B428E
:101B800028D3030C8B420DD3FF22090212BA030C97
:101B90008B4202D31212090265D0030B8B4219D378
:101BA00000E0090AC30B8B4201D3CB03C01A524198
:101BB000830B8B4201D38B03C01A5241430B8B42E0
:101BC00001D34B03C01A5241030B8B4201D30B03C9
:101BD000C01A5241C30A8B4201D3CB02C01A5241F0
:101BE000830A8B4201D38B02C01A5241430A8B42B3
:101BF00001D34B02C01A5241030A8B4201D30B029C
:101C0000C01A5241CDD2C3098B4201D3CB01C01AB5
:101C1000524183098B4201D38B01C01A52414309BF
:101C20008B4201D34B01C01A524103098B4201D3AD
:101C30000B01C01A5241C3088B4201D3CB00C01A1A
:101C4000524183088B4201D38B00C01A5241430892
:101C50008B4201D34B00C01A5241411A00D20146B7
:101C6000524110467047FFE701B5002000F00CF824
:101C700002BDC0460029F7D003B5FFF775FF0EBCC3
:101C80004243891A1847C0467047C0461C210123A9
:101C90001B04984201D3000C10391B0A984201D34F
:101CA000000A08391B09984201D30009043902A22D
:101CB000105C40187047C046040302020101010194
:101CC0000000000000000000000000000000000014
:101CD000F0B544465F4656464D46D24BD2499A6AC5
:101CE000F0B40A439A62BC22996AD2030A409A620B
:101CF0009A6A1A690122002052421A611A6918610F
:101D00001A69CA49DA6880240A43DA608022D968ED
:101D1000D2030A408021DA60DA68DA6949050A43A9
:101D2000C349DA61DA690A68640022430A60C022A2
:101D3000196A92000A40802191B089008A4203D03A
:101D4000802252021A6218628022B64B1202196A6D
:101D5000114207D18020196A800001431962196A73
:101D60000A431A620024B34BB34A5C601C601460DF
:101D7000B24A9C601460B24A1C611460B14A9C6112
:101D80001460B14A1C62146001229C62AF4B524243
:101D90005A600520032102F04BFD0620032102F0CA
:101DA00047FD0720032102F043FD0123A84EA94F60
:101DB0003370331C1833B361F361A74B02213462D3
:101DC0000C2033637460B460F46034617461B76292
:101DD000F46202F02DFD8021924B89009A690A433A
:101DE0009A619B699D4B1C60BB680193002B00D0DE
:101DF000C3E08022BB6812061343BB60BB68002BA4
:101E000000D1BAE03B1C9A68002AFCDB854B944A5F
:101E10009969944F0A4094499A619A698B46F9608E
:101E2000396192490025396302210122D8693A704B
:101E300008437D607D61FD61BD62FD62D8618C48B3
:101E4000DB6983680B4383608A4B8B4898628B48BD
:101E5000D8629D6110205D63DD605D605A611A602B
:101E600002F0E6FC864C874B0720E36123620123E6
:101E70005B4263620F3B238790336387824B24600E
:101E8000E3632B1C6460A560258501331A01A21849
:101E90002832117A81431172802BF6D124257B4A96
:101EA0007B48002110607B48A84650607A4A7B48F6
:101EB00051601060101C0C30916010615161D06055
:101EC000774A216390444546101C556228251030FE
:101ED00010611420A846906110388446D061714882
:101EE000904410629063101C45463C30D063101C37
:101EF00095621C2540301064101C15636546443003
:101F0000616391605161D1625563126052605064A7
:101F1000654A6648A350664AA154664AA350012206
:101F2000654BE150654BE150654B6649E254664BA9
:101F3000E150083B6549E450654B6050654966488F
:101F4000E450664B21500430236163612150A3614A
:101F50006349644BE1500433E254634A634B116AB2
:101F60000B40136262B6624B181C984600F078FD75
:101F7000002805D05F4800F0FBFC5F4800F0F8FC4B
:101F80005523424613540130D828FAD172B600F0D6
:101F90002FFD00F01DFDAC2342464146D2506C326D
:101FA000103BCA50554B8022CB6700238B50544ABC
:101FB000454691468C2248468850982140468B3AA7
:101FC000425002201831685401316B541B316A5061
:101FD00004396B5004396B50B233EA54494A0A3B16
:101FE000EA504046A422083BEC5063699030AB5065
:101FF00042461861B823B832EA504346BC22BC338B
:10200000AB500432AB50606102F072FD00F008FD8D
:102010003B785A1E012A79D9052B77D03A4800F02F
:10202000A7FCC04600100240FFFFA1FFFFFFBFFF5B
:102030000070004024040020080002401C00024000
:1020400030000240440002405800024000000240BC
:102050005C040020002401408A250000082701407C
:10206000FFFDFFFF840F0020900F00200054004070
:1020700000580140000400405F090000FFFF00001D
:10208000000700201C070020400700201C0400203F
:10209000B80F00200010002000040020813200084A
:1020A000900400202132000848080000680F00203A
:1020B000610800007C080000780800007408000037
:1020C00062080000E0570008580800006808000097
:1020D000540800006C0F00206C080000400F002026
:1020E000000200205C08000000ED00E0FFFF00FFA0
:1020F00028060020285800087057000831290008D9
:10210000B9010008F85700086C58000872B600F0D2
:102110006FFCC64B01227B603B6B98461B68934368
:10212000424613603B789A46012B2AD04246BB6A4E
:1021300024325B689A60FB6A04325B689A607A6852
:10214000BB4B51680B4341460B60136801220B6186
:102150000B6813430B6002233B7000F021FC2368E3
:10216000A34204D0A2699B6892689A423BD362B6AC
:10217000B04F381C00F074FC002837D0AE4800F097
:10218000F7FB802099337B62103B3B62AB4B8003B3
:102190001A69AB4902431A611A69114019611A6937
:1021A000DA6903210243DA61DB69022000223B1C69
:1021B00001F02EFFB862002876D05046032100229D
:1021C0003B1C01F025FFF86200286DD080233A6A9D
:1021D0005B011A433A627A6A1720134303217B6238
:1021E00002F026FBA2E7974800F0C2FBA423552289
:1021F0005B003A5401309842FBD172B600F0F8FB14
:102200008E233A1C5B00FF50DC32103BFA508E4AA2
:10221000203BFA50002398464246F033FA504A4693
:102220000C33FA5084227C3B5200BB50073AFF3AF1
:10223000914649461F32FF32B95422224146FF32AD
:10224000B9541B32BB504246B833FA50043BFA50E3
:102250000132123BFA547D4A0A3BFA508A22083B6B
:10226000FC5063695200781CBB50FF303A1C186167
:1022700094232932FF325B00FA503B1C96222D3307
:10228000FF335200BB500432BB50606102F030FC9F
:1022900000F0C6FB72B600F0ABFB37787B1E012B5B
:1022A00005D96B4800F064FB6A4800F061FB4346C7
:1022B0007360012F00D178E10223337000F070FBCE
:1022C0002368A34205D0A2699B6892689A4200D213
:1022D00086E162B6C022604B12041A6072B600F04A
:1022E00087FB90265D49082000F0E2FD202500F0E4
:1022F00097FB4023F60575839A4673838023738387
:1023000099460123564F98467B8302237B8372B6FE
:1023100000F06EFB5149082000F0CAFD00F080FB80
:102320005346358333834B46338343463B830223F3
:102330002C213B83102302AA521813700B22414414
:1023400002AB5B182E201A70192302A909180CAED3
:102350000B7073700023327027382C25019902AA64
:102360005219525C082790468021021C5D00EDB294
:102370006A4091465AB2002A53DB2B1C4546DAB21A
:1023800042400D4200D0131C013FDBB24908002F30
:10239000EBD1019A01320192032ADED15846B37083
:1023A00001F0A6FA3A1C3B1C0199301C02F0A8FA75
:1023B000584601F02DF90DA9502003F031F82C22D8
:1023C00002AB9B181A780C232C21134002AA521836
:1023D000244D13700DA95B0059202B7003F020F8D9
:1023E0002C2202AB9B181A781F232C211A4002AB17
:1023F0005B181A702B7813432B701F2B13D86E3376
:10240000FF33194A19495120136003F009F872B6D5
:10241000236B002B02D1636B002B2BD0144800F0F0
:10242000A7FA4B46AAE7C6235B00EAE76457000811
:1024300090C00000E0040020405800080010024056
:10244000FFFFDFFF0C5B0008113300080058000895
:1024500034580008185800080827014010270000C9
:102460000004004854040020DC040020D8040020AC
:1024700008580008FA21013308208900636300F03E
:1024800017FD236B002B00D08CE0626B002A00DC70
:1024900088E063632368A34205D0A2699B689268C1
:1024A0009A4200D2A2E062B672B6236B002BB5D17D
:1024B000636B002BB2D1FA210133082089006363DA
:1024C00000F0F6FC236B002B6CD1626B002A69DDF7
:1024D00063632368A34205D0A2699B6892689A420D
:1024E00000D283E062B602ABDA1D002303AE1370A4
:1024F0002C330192337072B6236B002B8ED1636B39
:10250000002B8BD101335846636301F041F9236BF3
:10251000002B47D1626B002A44DD63632368A3422A
:1025200004D0A2699B6892689A4238D362B60121AE
:102530000DAA0423301C02F0E3F9584601F068F8B4
:1025400011232C2204AE337002AB9B1818780021A3
:1025500007230A1C9C46804670700823705C8946DD
:102560008027191C5300DBB29A466346554652B287
:102570006B40002A11DB52466546D3B26B403842AD
:1025800000D01A1C0139D2B27F080029EAD10B1CF5
:10259000494601292DD00121DFE71A1CECE7D1487B
:1025A00000F0E6F9D04800F0E3F940464946CF4A4A
:1025B000331C01F02DFDF062002814D08021436807
:1025C000CB4A89009A60CB4B9A690A439A6142468A
:1025D0009B69B36A1A619F601A683A42FCD06BE645
:1025E000C54800F0C5F9C54800F0C2F9C44800F07C
:1025F000BFF92E2505A90A7002AA52191278404681
:10260000327035780827A84607258026AC469146C3
:102610005A00D2B29246624655466A401B0600D521
:1026200056E153466546DAB26A404546354200D027
:10263000131C013FDBB27608002FE9D12D2602AD35
:102640004B70AD190B782E784A469E420DD12F253E
:102650004B7802A949190978994206D102A90E239B
:102660008C460002821863441A800DA90C2002F0E7
:10267000B7FA02AB9C462E210E20614402F0B0FA5C
:102680000EA9102002F0ACFA02AB9C4632211220B7
:10269000614402F0A5FA0FA9142002F0A1FA102358
:1026A00008AA052107AE13703233937073700720A8
:1026B000002351703170D15D802588460821B946CC
:1026C000AC460F1C5900C9B25BB28A464140002B90
:1026D00000DAFFE05346D9B241408A46454661469A
:1026E0000D4200D053466146013F4908DBB28C469B
:1026F000002FE7D1391C4F460137032FDBD1884625
:10270000B37072B6236B002B00D087E6636B002B8F
:1027100000D083E601335846636301F039F8236B38
:10272000002B00D03EE7636B002B00DC3AE743460A
:1027300063632368A34205D0A2699B6892689A42AA
:1027400000D22CE762B600220321131C301C02F0D9
:10275000D7F8584600F05CFF9023DB051A69102378
:10276000134000D1BAE00123019A1370019B1B783A
:10277000002B00D198E606AE301C02F041FC02A905
:102780008C4612223388624413800B1C2C211022A9
:102790005B182D2061461A70002309180B706146E2
:1027A000013009180A70414609AE3370727027383B
:1027B0002C2502AA5219525C082790468022944682
:1027C0005A00D2B29146424092465AB2002A00DAEA
:1027D00082E04B46DAB24240914645466246154297
:1027E00000D04B466246013F5208DBB29446002FB0
:1027F000E6D101310329DBD1B37072B6236B002B14
:1028000000D00BE6636B002B00D007E6013358467F
:10281000636300F0BDFF236B002B00D0C2E6636B47
:10282000002B00DCBEE623686763A34205D0A269E3
:102830009B6892689A4200D2B1E662B600220321F8
:10284000131C301C02F05CF8584600F0E1FE002337
:10285000019A0DA8137002F0D3FB02AB2C20185E76
:10286000FFF762F8274A284BFEF74AFAFFF7ECF821
:10287000FFF796F8254A264BFDF71EFF0022254B51
:10288000FEF73EFAFFF7E0F8234D0B900B9B28680C
:102890009846FFF785F8061C40460F1CFFF780F8A6
:1028A0001E4A1F4BFEF72CFA0B1C021C391C301C55
:1028B000FEF7C0FCFFF7C8F8286028680021FDF784
:1028C00091FC1849FDF7C6FD0C900C9B0A93EBE5B3
:1028D000131CA7E60B1CFEE653467BE7019A137018
:1028E00044E7C046245B000810580008D1410008A6
:1028F000402401400010024054580008D0570008FE
:102900006058000893036EC430B3E13EFCA9F1D2D5
:102910004D62303F00408F4058040020322E915AC3
:102920008A20FD3E0000C8420000000000000000B8
:10293000FEE7C046000000000000000000000000AC
:10294000084A0949D36B496A99801978196084212A
:102950000901103351188B4201D3131C4033D36348
:102960007047C0460007002000040040000000003F
:1029700038B5051C72B6094C238F5B0701D5E5629B
:10298000FEE707200422E16B0B788D60834313433D
:1029900003400B70FFF7D4FFE562F1E7000700206A
:1029A00008B5064B1A6B002A04D1596B002901DDCA
:1029B0005A6308BD0248FFF7DBFFC046000700204E
:1029C0001058000800000000000000000000000097
:1029D00008B5054B1A6B002A03DB5B6B002B00DD8F
:1029E00008BD0248FFF7C4FF00070020DC580008BC
:1029F00008B5064B1A6B002A02D15A6B002A02D086
:102A00000348FFF7B5FF01225A6308BD0007002005
:102A1000085800080000000000000000000000004E
:102A200008B50C4B1A6B002A0DD1596B00290ADD31
:102A30005A631A689A4204D09B69996893689942CC
:102A400004D362B608BD0448FFF792FF0348FFF7BE
:102A50008FFFC0460007002010580008605800088B
:102A6000F0B54D465F4656464446F0B4051C83B06B
:102A700072B6FFF7BDFF2222904C2769BB5C013381
:102A8000BB54FFF78DFF2368A34204D0A2699B6863
:102A900092689A4227D362B601239B4620332226AE
:102AA0009946FB69AB4245D072B6236B002B02D12D
:102AB000636B002B02D08248FFF75AFF5A466263CD
:102AC0003A699046A24243D0935DFF2B3AD001333E
:102AD0009355002363632368A34207D0A2699B68D0
:102AE00092689A4202D27748FFF742FF62B672B606
:102AF000236B002BDFD1636B002BDCD15A46626362
:102B0000BA5D002A21D0013ABA55396A6E4A0A40A4
:102B10000F2A1FD063632368A34204D0A2699B6875
:102B200092689A4245D362B64346002B00D18AE0B0
:102B30004746B6E7381C03B03CBC90469946A246CF
:102B4000AB46F0BD6148FFF713FF6148FFF710FF88
:102B50009846BEE739697A69116139694A616363E8
:102B60002368A34204D0A2699B6892689A4220D34A
:102B700062B64B46FA5C03231340012B1CD0022B98
:102B8000D2D13A6CF96972B6236B002B00D092E770
:102B9000636B002B00D08EE75B466363002A05D091
:102BA000002903D09368013B0B406FD04948FFF7E1
:102BB000DFFE4948FFF7DCFEFA69002A02D0072150
:102BC0000A4202D04548FFF7D3FE083A171C1268A4
:102BD00092467A680732D2087A6072B6226B002A6F
:102BE00000D068E7626B002A00D064E70C325244E0
:102BF000101C6363019200F0CBFD236B002B56D1B8
:102C0000626B002A53DD63632368A34204D0A26988
:102C10009B6892689A424DD35146043162B60B1CB0
:102C20009F4205D35A680132D2009A189742C9D3FD
:102C30001A68994201D09F4203D9002A05D09742D1
:102C400003D3131CECE7404675E779683A601F60D0
:102C50004A1CD2003868BA18824206D150681268FD
:102C600084466144013179603A605A68511CC90058
:102C700059188F4206D179688C46624401325A60F5
:102C80003A681A60019800F0C3FC4DE710680860CC
:102C9000116063632368A34200D144E7A2699B6883
:102CA00092689A4200D33EE70D48FFF761FE0D4857
:102CB000FFF75EFE0C48FFF75BFEC04600070020F2
:102CC00008580008D0580008FF00FF00C05800084E
:102CD00098580008A858000860580008B458000820
:102CE0000C59000810580008245B00080000000080
:102CF000F8B572B6394C236B002B02D1636B002BF5
:102D000002D03748FFF734FEA56901232E1CAA6ABA
:102D1000283663636862B24224D01368AB62202312
:102D2000D15C00291BD00F2919D0181C00239C4608
:102D300063461354231C91681B689F688F42FBD223
:102D40005968136051600A605A60AA6AB24209D099
:102D50001368AB62135C002B01D00F2BE8D1214824
:102D6000FFF706FE2223EB5C002B08D12123EB5C4E
:102D70009B0704D12A696B691A612A695361202271
:102D80000F23AB54236819684C60216001219954CA
:102D9000208FA36108420CD0EFF30983EA69243B3A
:102DA0009A4218D8A069291CFDF7F6F90E48FFF7DA
:102DB000DFFD0727E06B0678BE4331430170A95C55
:102DC0000278C9003A400A43027083606B6AC360AC
:102DD000FFF7B6FDE0E70548FFF7CAFD0007002052
:102DE00008580008BC5A000818590008E4580008A0
:102DF00001202021F8B5294C2268A56913685C6080
:102E00005054206B2360A261002827DB606B0028F0
:102E100024DD002D1FD0685C00281CD00F281AD09C
:102E200000206854A96800E01B6898688842FBD8B5
:102E300059682B6069600D605D60238FDB0713D5D7
:102E4000EFF30983EA69243B9A420AD8291CA06956
:102E5000FDF7A2F9F8BD1248FFF78AFD1148FFF708
:102E600087FD1148FFF784FD072701262021E36B2A
:102E70001878B84330431870685C1978C00039403E
:102E8000014319709A606A6ADA60FFF759FDEFF33F
:102E90000983EA69243B9A42D8D9E2E70007002077
:102EA000A85A0008DC580008E45800080000000098
:102EB000F0B5474680B49D4C86B0236B002B00D004
:102EC0009DE0636B002B00DC99E04B1C00D19CE083
:102ED000A369002900D195E001AD2B61944BEB6013
:102EE000944B5A6AE36992B2012900D1ADE0261CE5
:102EF0001C36B34200D1C3E0268D921B92B28918D2
:102F00008A4200D999E09A68914213D2894FFF68AA
:102F1000BF0700D4D5E0884F8846B94200D9B846EB
:102F20004644844FB6B27E6304E0AB426AD01B686D
:102F3000891A9A689142F8D85A6801936A601560B4
:102F40005D60A9609A68511A996001235B426362CF
:102F5000236BA669002B52D1636B002B4FDD20221F
:102F60002368B05419684C60216001219954208F66
:102F7000A361014214D10727E16BBC460878B8432E
:102F8000071C0120384367460870B05C0A78C0000F
:102F90003A4002430A708B60736ACB60FFF7D0FC43
:102FA000EFF30983F269243B9A424BD8A069311CA4
:102FB000FDF7F2F8236B002B00DA7FE0636B002B48
:102FC00000DC7BE0049B002B13D0E369AB4200D113
:102FD0007DE06A68019B1360019B5A600022EA60F1
:102FE000221C1C32934204D09968AA688C46624421
:102FF0009A60A369586A06B004BC9046F0BD4F4879
:10300000FFF7B6FC4E48FFF7B3FC20262168A56900
:103010000B68A85523605C6001238B55228FA1614A
:10302000134218D0EFF30983EA69243B9A4209D886
:10303000A069291CFDF7B0F8DBE79A681B68891ABC
:103040009A6877E73F48FFF793FC211C1C318B42BD
:103050002BD0022150E7072201279446E36B187812
:10306000904338431870A85D66461A78C000324015
:1030700002431A7099606A6ADA60FFF761FCD1E76F
:103080002B606B602C4B2285E5612562A9601E1CBC
:10309000994211D902272749CB683B4014D1B21875
:1030A00092B24A630B61CF6052E702212285E5614B
:1030B00025622B606B60A9608EB2EBE72248FFF7B8
:1030C00057FC2248FFF754FC2148FFF751FC00232E
:1030D0002968204AE1614A60EB60914222D0AB68E6
:1030E0008A689A18134B8A60208D596A091A89B226
:1030F0008A4200D87DE7531A012B0CD9131E0E4AC1
:10310000934200D9131C0B4AD1688907D9D5C3183B
:103110009BB253636DE7084A8B1C9342F3D90E4868
:10312000FFF726FC034AD36063E7C0460007002090
:103130006131000800040040FFFF0000F45800085F
:1031400050590008E4580008DC5800085C59000891
:103150007C5900081C070020685900080000000086
:1031600038B572B6274B196B002902DD5A6B002A5D
:1031700002D02548FFF7FCFB01225A631F32825C14
:10318000072A31D8214C9200A2589746416A8A6892
:1031900001328A60196B42680468146004686260D6
:1031A000012252424262002922DB5A6B002A1FDDB3
:1031B0002024025D002A1ED00F2A1CD000220255B6
:1031C0001A1C846812689568AC42FBD95468026086
:1031D000446020605060002910D000225A6362B61B
:1031E00038BD0024426A1460012252424262DCE788
:1031F0000748FFF7BDFB0748FFF7BAFB0648FFF794
:10320000B7FBC04600070020FC58000878580008AB
:10321000DC580008BC5A00080459000800000000EF
:10322000124B70B51A6B002A1BDB5B6B002B18DD91
:10323000002913D04B1E194210D10D4A4C4215687B
:1032400018186E1E711821402040536808189842C3
:103250000AD8854208D81060081C70BD0548FFF7E1
:1032600087FB0548FFF784FB0020F6E700070020F6
:103270001C04002024590008DC580008000000004D
:1032800070B572B61A4B1C6B002C02D15C6B002C13
:1032900002D01848FFF76CFB01245C6300291ED0A4
:1032A0004C1E21421BD1144D49422E682018B218E1
:1032B00012190A40014068685118814212D88E42A2
:1032C00010D82960002159631968994204D09B697C
:1032D00098688B68984207D362B6101C70BD074887
:1032E000FFF746FB0022EDE70548FFF741FBC0462C
:1032F00000070020085800081C040020245900087A
:103300008C590008000000000000000000000000D0
:10331000F0B544465F4656464D46F0B4A34CA44A29
:10332000A36987B09A6172B6236B002B02D1636BDD
:10333000002B02D09F48FFF71BFB9F4B90260125D7
:103340009B46F60508209C496563FFF7B1FD236B9A
:10335000002B00D0BBE0626B002A00DCB7E06363A7
:103360002368A34205D0A2699B6892689A4200D262
:10337000B0E062B62023914A33831E3B138372B6BA
:10338000226B002AD6D1626B002AD3D101AA9046C3
:10339000A1698B4A059141468A486563CA60426AC1
:1033A000894F91B2E269B946BA4200D1ACE0278DAB
:1033B000C91B89B28A468049BC4651448A4500D817
:1033C0008BE093681268C91A04E0424500D195E089
:1033D0001268C91A93689942F7D8434640461A6062
:1033E0005368436018605060816093685B1A936013
:1033F00001235B426362A3699A46236B002B00D0D2
:103400007FE0636B002B7CDD20220823514620687F
:103410008B5403685C6085542360238FA0612B422A
:1034200012D10727E36B1978B94329431970514624
:103430008A5C9860D1001A783A400A431A70524662
:10344000526ADA60FFF77CFAEFF309835246D269D9
:10345000243B9A426DD8A0695146FCF79DFE206B33
:10346000002869DB636B002B66DD049B002B13D007
:10347000E369434569D043465A681B684146136077
:1034800043461B685A600022CA604B4504D08A68D4
:1034900099688C4662449A60002818D1236860635A
:1034A000A34204D0A2699B6892689A4212D362B682
:1034B000202302227383414B5A8372B6236B002B65
:1034C00000D037E7636B002B00D033E73AE73F4883
:1034D000FFF74EFA3E48FFF74BFA9768B94200D320
:1034E00078E7C06818422DD03A480B1E834200D9B5
:1034F000031C634433489BB243636BE73648FFF7D2
:1035000037FA3648FFF734FA474601927A60E761A6
:10351000424627625F469760C26821851A409446FA
:103520000DD1254A8A1892B2426362460261C36095
:1035300061E72B48FFF71CFA2A48FFF719FA2A48D7
:10354000FFF716FA2948FFF713FA434619684B4666
:10355000E16142464B600023D360494523D0936824
:103560008A689A188A60238D9C46164B596A63466E
:10357000C91A89B28A428FD9531A012B0CD9131E4A
:10358000144A934200D9131C0E4A6344D1689BB27B
:103590008907D7D553637FE70E4A8B1C9342F3D933
:1035A0001348FFF7E5F9074AD36075E700070020E5
:1035B00074590008085800088813000000040048E7
:1035C00061310008000400401C070020105800086A
:1035D00060580008FFFF000050590008F458000828
:1035E000E4580008DC5800087C5900085C590008C1
:1035F0006859000800000000000000000000000002
:10360000EFF30983203383F3098862B67047C0461D
:1036100070B5544CA369002811D072B6226B002AF1
:1036200002D1626B002A02D04F48FFF7A1F90121B5
:103630006163996B002902D08D689D4202D04B488E
:10364000FFF796F98842FAD1C3680168AB638842F4
:1036500033D0EE6B002B09D01A68934203D09268E6
:10366000964200D2161CDB68002BF5D10B68AE60C9
:10367000036058608B6B8160C36020238863CA5CE1
:10368000002A2AD00F2A28D00022CA54231C8A6874
:103690001B6898689042FBD25A680B604A60A56923
:1036A000116022685960A96893688B421BD8236B0C
:1036B000002B03D02E48FFF75BF98260636B002B71
:1036C000F8DD002363632368A34204D0A2699B68EA
:1036D00092689A4204D362B670BD2648FFF748F953
:1036E0002548FFF745F9136801205C60236020231B
:1036F000A261D054E85C00282ED00F282CD00020E6
:10370000E854231C1B6898688142FBD359682B60DE
:1037100069600D6001215D60238F0B4211D1072686
:10372000E36B1878B043084318701F31695C9A60E6
:10373000C80019783140014319706A6ADA60FFF7EE
:10374000FFF8EFF30983EA69243B9A4207D8A0699E
:10375000291CFCF721FDAAE70848FFF709F90848EA
:10376000FFF706F900070020085800084459000830
:1037700010580008BC5A0008245B0008A85A00082A
:10378000E4580008000000000000000000000000F5
:10379000F8B5534E051C336BB469002B42D1736BE3
:1037A000002B3FDD00283AD08268002A77D0202302
:1037B000A1689C4693688B4208D263469160D35CB3
:1037C000062B53D0072B42D0002B2ED02B1C03E00E
:1037D0009A68A1688A4202D31B689D42F8D15A6850
:1037E0002360626014605C60202206236562A3543B
:1037F000336819684E60316001219954308FB3618C
:10380000014251D0EFF30983E269243B9A4260D828
:10381000B069211CFCF7C0FCAB68A3425CD0314806
:10382000FFF7A6F83048FFF7A3F85068176807605D
:103830001768786020201354331C1B6898688142F5
:10384000FBD91360596851600A605A60BEE753683B
:103850001068186010684360506A031C02E09F689B
:103860008F42EED31B689842F9D1EAE7536810689B
:10387000186010684360506A031C02E09F688F4222
:1038800002D31B689842F9D15968136051600A60ED
:103890005A608268A16893688B428ED396E7A36BC7
:1038A0008460C360A063F8BD0727F16BBC4608784D
:1038B000B8430127384367460870A05C0A78C00007
:1038C0003A4002430A708B60636ACB60FFF738F8B6
:1038D00098E70648FFF74CF8A36BAB429FD1E2E7AD
:1038E0000007002098590008F4580008E458000820
:1038F00010B572B6124C236B002B02D1636B002BF8
:1039000002D01048FFF734F801236363FFF740FF4C
:10391000236B002B0DD1626B002A0ADD63632368E1
:10392000A34204D0A2699B6892689A4204D362B60B
:1039300010BD0548FFF71CF80448FFF719F8C0460A
:10394000000700200858000810580008245B0008F1
:10395000BC20474AC003916A30B501439162936A23
:103960004449454C19409162936A5369802103434D
:103970005361536990230120DB05C90059603F4919
:1039800040429860D9603E498825596188214901A3
:103990001962002159621C60C0243A4B6D055C60BD
:1039A000394C9860DC60394C5C611D62384D59625D
:1039B0001D60384B596098603748D8605C61196267
:1039C000596219600123022011680B4313601168CA
:1039D000274B0842FBD003215A680C208A43191C4C
:1039E0005A604B68224A0340FBD1F920116801401C
:1039F0001160802180205360136849020B431360DB
:103A0000800211681A4B0142FBD00122596B02203F
:103A10000A435A631A1C516B154B0842FBD0012212
:103A20000220596A0A435A625A6A11491042FBD06D
:103A30000223CB62A023DB024B6011230B63012125
:103A4000164A013B136013681942FCD101230C2074
:103A5000074A51680B435360536805490340042BE0
:103A6000FAD18A69033B13438B618B6930BDC04631
:103A700000100240FFFFA1FFAC54202855555565AA
:103A80001FFF00000004004855555555FFFF00007A
:103A900005A00000000800485555550500200240CB
:103AA000F0B5454657464E46E0B4664C7546238F02
:103AB0009B070DD472B607200222E16B0B7883437B
:103AC000134303400B70604B8B60FEF739FF62B607
:103AD00072B6236B002B02DB626B002A02D05B48BC
:103AE000FEF746FF0133236362B6594B1969890714
:103AF00009D472B6236B002B02DD626B002A0DD055
:103B00005448FEF735FF1A6172B6226B002A02DDB7
:103B1000626B002A32D05048FEF72AFF013B236334
:103B200062B6238F9B0717D50F3510D072B6EFF30F
:103B30000983203B83F3098880225204DA612168DB
:103B4000A26989689268914215D8444A9A611CBC5E
:103B500090469946A246F0BD72B607200322E16B5B
:103B60000B788343134303400B70374B8B60FEF796
:103B7000E7FE62B6D8E73A4A9A61E8E71E1C1C23C2
:103B80009846002701326263E269A044716A238D7E
:103B900089B2C81A80B2814690688246814521D395
:103BA00041465344238513685960E361D168D76067
:103BB00043453DD0676362B61069884772B6236B90
:103BC000002BA8DD636B002BA5D152464B469B1AF8
:103BD00099460123E269636393689A469945D5D370
:103BE000238DDDE7201C1C3082421DD04E4690689C
:103BF0004B449BB2801B23859060CA1A92B2821AF2
:103C0000012A1AD91748824200D9021C1048C668F6
:103C1000B6070FD58A1892B24263416AC91AD31AFD
:103C20009BB28AB29A420AD80023636362B660E705
:103C3000F760BFE70C48FEF79BFE0222E6E70B4861
:103C4000FEF796FE00070020B0590008C85900088A
:103C500000040040D0590008FC580008D4010008B6
:103C6000C9010008FFFF00005C590008A4590008C2
:103C7000F8B54F464646C0B4BA4DBB4C2B6B7746A1
:103C80009E69238F9B070DD472B607200222E16B39
:103C90000B788343134303400B70B44B8B60FEF7E8
:103CA0004FFE62B672B6236B002B02DB626B002AFA
:103CB00002D0AF48FEF75CFE0133236362B6FC22FC
:103CC0002B6B9201DE61164263D1FE22324209D192
:103CD00072B6236B002B02DD626B002A2DD0A54843
:103CE000FEF746FEF20600D5CBE0320600D59EE098
:103CF0007206EDD52A78032A00D147E10F26AA6A79
:103D000050680168B1430160507B11680E22824007
:103D10004A6080215A68C9010A4340215A601A68E2
:103D20008A431A6072B6236B002B03DD636B002B92
:103D300000D103E19048FEF71BFE013B236362B60E
:103D4000238F9B070DD472B607200322E16B0B78FB
:103D50008343134303400B70844B8B60FEF7F0FDED
:103D600062B60F3711D072B6EFF30983203B83F3AD
:103D7000098880225204DA612168A2698968926800
:103D8000914200D970E07D4A9A610CBC90469946F8
:103D9000F8BD0F20EB6A59680A6882430A601A6806
:103DA00094465A7B0E23191C91400A1C61464A60B6
:103DB000AA6A51688C4609688143604601601168AF
:103DC000527B93404B60F30549D4AB68B20502D5F2
:103DD00002221343AB60720549D508221343AB603E
:103DE000F20446D472B6236B002BA3DD636B002B69
:103DF000A0D101226263EA69002A14D02021505C1C
:103E0000032800D097E002204042EB6150625354F7
:103E1000231C91681B6898688842FBD2136059681C
:103E200051600A605A600023636362B650E72A78E3
:103E3000032A6FD0AA6A52685268FF2A65D8002008
:103E4000160469685A688D688021C9000D434C4981
:103E500011402A1C0A43024332435A6038E70123C7
:103E6000AA681343AB60B1E7464A9A618DE7F20452
:103E700003D520221343AB60B4E7002B00D127E722
:103E8000B0E70F26EA6A50680168B1430160116823
:103E90008C46517B0E22101C8840011C60464160FC
:103EA000A96A486884460068B0436646306008687E
:103EB000497B8A4042600422A9680A438021AA60A3
:103EC0005A68C9010A4346215A601A688A431A602F
:103ED00072B6236B002B00DC2CE7636B002B00D049
:103EE00028E701226263EA69002A9CD02639505CE7
:103EF000032820D10538EB6150625354231C91688C
:103F00001B6898688842FBD288E7FF268020360429
:103F1000400496E7EA6A52685268FF2A6AD800208D
:103F200011046D685E68164AAD6832402A43024348
:103F30000A435A60CCE61448FEF71AFD0122626378
:103F4000EA69002A00D16EE72039505C0328F2D1DB
:103F50005362EB615354231C91681B689868884234
:103F6000FBD25BE7840F002000070020E85900081F
:103F7000C8590008D0590008FC580008D4010008AE
:103F8000FFFF00FEC9010008F45900080F26EA6A85
:103F900050680168B1430160507B11680E22824075
:103FA0004A60AA6A52685168002900D1B1E6516896
:103FB000FF2924D800208446586809048046686890
:103FC00086688020C0003043814640460E4E064041
:103FD000484630436646304301435960012110682A
:103FE0000143116080215A6889010A435A60042301
:103FF0002B706DE6FF2180200904400491E78020AA
:104000004004FF218446D7E7FFFF00FE00000000C8
:10401000F0B5444656464D465F46F0B483B0041CA6
:104020000E1C90469946FEF7D3FC042C0ED80122B4
:10403000171CA740234D2B683B420AD0002003B039
:104040003CBC90469946A246AB46F0BD1E48FEF7E2
:104050008FFC1E4821018346019159448A464146FE
:104060000134E400615149463B432B60184B2C1945
:10407000616059690A435A615B694346002B09D064
:1040800052465346696892680833114215D06B68EE
:104090001F436F60019C0F20231C5B44191C5B684D
:1040A000497B1A6882431A600E2258468A4000599A
:1040B0004260002250461A60C1E7D879311C00F0F6
:1040C000B7FBE4E724040020D85900088057000813
:1040D000001002400000000000000000000000008E
:1040E00038B5324C7546238F9B070DD472B6072026
:1040F0000222E16B0B788343134303400B702C4B7C
:104100008B60FEF71DFC62B672B6236B002B02DBE0
:10411000626B002A02D02748FEF72AFC0133236392
:1041200062B60E21244A13681940244B1B680B42C7
:1041300006D05160224A9368002B01D0D06898477E
:1041400072B6236B002B02DD626B002A02D01D4881
:10415000FEF70EFC013B236362B6238F9B070DD451
:1041600072B607200322E16B0B78834313430340AD
:104170000B700F4B8B60FEF7E3FB62B60F3510D070
:1041800072B6EFF30983203B83F30988802252043F
:10419000DA612168A26989689268914202D80A4A64
:1041A0009A6138BD094A9A61FBE7C04600070020C2
:1041B000BC590008C859000800000240080002402D
:1041C00024040020D0590008D4010008C9010008C7
:1041D00038B5041C0B0719D40369002B0ED08A07CD
:1041E0000DD51A78002A51D05B68002B06D0042226
:1041F000027098472378042B00D191E038BD4A071C
:10420000FCD55B68002BF9D09847F7E7C36A0F200D
:1042100059680A6882430A60597B1A680E238B40EA
:104220005360A26A93685B0718D423699B68002BCC
:1042300072D00522201C2270002198472378052B7C
:1042400021D00023236172B6454B1A6B002A02DD90
:104250005A6B002A0BD04348FEF78AFB1023916863
:104260000B431021936093681942FCD1DDE70121D3
:1042700059636169002946D020200D5C032D52D07E
:104280003948FEF775FB033B2370DAE70F25C26A56
:1042900050680168A9430160507B11680E2282407A
:1042A0004A60A16A8A6852074ED45B68002B2ED000
:1042B0000422201C227098472378042B27D072B642
:1042C000274B1A6B002AC6DD5A6B002AC3D1012185
:1042D00059636169002916D020200D5C032DCFD1D0
:1042E00062614A620C5C002C37D00F2C35D00A5426
:1042F0001A1C8868126894688442FBD20A6050686D
:1043000048600160516000225A6362B676E702237A
:10431000237000232361D2E702222361227092E7F7
:10432000013B23706AE76261012464424C620C5CC9
:10433000002C12D00F2C10D00A541A1C8868126856
:1043400094688442FBD2D9E7102288680243102087
:104350008A608A681042FCD1A7E70448FEF708FB90
:1043600000070020FC580008F4590008BC5A000857
:10437000F8B5564644465F464D46F0B4904C7646F6
:10438000238F9B070DD472B607200222E16B0B78B6
:104390008343134303400B708A4B8B60FEF7D0FAC4
:1043A00062B672B6236B002B02DB626B002A02D06E
:1043B0008548FEF7DDFA0133236362B6834DAB6AAD
:1043C0002A691F681F60002A0CD010218A463942D2
:1043D00006D0E96A8B4649688C464968002955D160
:1043E0003B0609D472B6236B002B02DD626B002AF8
:1043F0002DD07748FEF7BCFA0F20EB6A59680A689F
:1044000082430A60597B1A680E238B405360AA6A64
:1044100093685B0700D594E02B699B68002B00D163
:10442000B4E00522281C2A70022198472B78052B1E
:1044300000D1B2E000232B6172B6236B002B03DDA9
:10444000636B002B00D185E06248FEF791FA013BD7
:10445000236362B6238F9B0761D50F3610D072B6E7
:10446000EFF30983203B83F3098880225204DA6149
:104470002168A2698968926891425FD8564A9A6118
:104480003CBC90469946A246AB46F8BD61460968D9
:1044900088460F2189464146484681438846614601
:1044A00040460860594609680E208C465946497BAB
:1044B0008840614648609868410771D49368002B32
:1044C00077D00522281C2A70012198472B78052BCC
:1044D00073D000232B6172B6236B002BB4DD636BAA
:1044E000002BB1D1012262636A69002A13D0202116
:1044F000505C03284ED1012040426B6150625354FE
:10450000231C91681B6898688842FBD25968136025
:1045100051600A605A600023636362B660E772B656
:1045200007200322E16B0B788343134303400B7096
:10453000244B8B60FEF704FA62B68EE7274A9A6135
:104540009EE7102391680B431021936093681942F2
:10455000FCD161E7012262636A69002A12D020213E
:10456000505C032816D104386B6150625354231CED
:1045700091681B6898688842FBD259681360516043
:104580000A605A600023636362B62BE702222B6144
:104590002A7051E71248FEF7EBF9033B2B7049E70D
:1045A0005146986801431020996099680842FCD1EF
:1045B00084E702222B612A708DE7033B2B7088E78A
:1045C00000070020105A0008C85900085C040020A9
:1045D000D0590008FC580008D4010008C90100089F
:1045E000F459000800000000000000000000000076
:1045F00038B53B4C7546238F9B070DD472B6072008
:104600000222E16B0B788343134303400B70354B5D
:104610008B60FEF795F962B672B6236B002B02DB56
:10462000626B002A02D03048FEF7A2F901332363FF
:1046300062B60E222D4B1968090B11402C4A1268E4
:104640000A4207D00A035A602A4A136A002B01D093
:10465000506A98470E22254B1968090C1140264ACA
:1046600012680A4207D00A045A60224A936A002B51
:1046700001D0D06A984772B6236B002B02DD626BC3
:10468000002A02D01D48FEF773F9013B236362B68E
:10469000238F9B070DD472B607200322E16B0B78A2
:1046A0008343134303400B700E4B8B60FEF748F9B6
:1046B00062B60F3510D072B6EFF30983203B83F357
:1046C000098880225204DA612168A26989689268A7
:1046D000914202D80A4A9A6138BD0A4A9A61FBE7B8
:1046E00000070020045A0008C859000800000240D2
:1046F000440002402404002058000240D059000821
:10470000D4010008C90100080000000000000000FA
:1047100038B53B4C7546238F9B070DD472B60720E6
:104720000222E16B0B788343134303400B70354B3C
:104730008B60FEF705F962B672B6236B002B02DBC5
:10474000626B002A02D03048FEF712F9013323636E
:1047500062B60E222D4B1968090911402C4A1268C5
:104760000A4207D00A015A602A4A1369002B01D075
:10477000506998470E22254B1968090A1140264AAC
:1047800012680A4207D00A025A60224A9369002B33
:1047900001D0D069984772B6236B002B02DD626BA3
:1047A000002A02D01D48FEF7E3F8013B236362B6FE
:1047B000238F9B070DD472B607200322E16B0B7881
:1047C0008343134303400B700E4B8B60FEF7B8F826
:1047D00062B60F3510D072B6EFF30983203B83F336
:1047E000098880225204DA612168A2698968926886
:1047F000914202D80A4A9A6138BD0A4A9A61FBE797
:10480000000700209C5A0008C85900080000024018
:104810001C0002402404002030000240D05900084F
:10482000D4010008C90100080000000000000000D9
:1048300070B5104B03249C46FF23C0260440E400BF
:10484000A340820892006244B60095599D438B01B3
:10485000A340191C1F2329439151012203409A4070
:10486000131CC02240098000604452008350036042
:1048700070BDC04600E100E0000000000000000044
:1048800070B5114D2E1C80366868AC682A68A0424D
:104890000AD2031C02CA02C3A342FBD3C3431C199E
:1048A000A4080134A4000019EB68984207D2C2435F
:1048B000D218920801329200002100F06DFE1035EE
:1048C000B542E1D370BDC0461C5A0008000000008C
:1048D000FEE7C046000000000000000000000000ED
:1048E0007047C0460000000000000000000000000B
:1048F0007047C046000000000000000000000000FB
:10490000F0B557464E464546E0B4002909D0002888
:1049100007D0002B01D0002A03D06B4C2578022D44
:1049200002D06A48FEF724F872B6694D2E6B002E4D
:1049300002D16F6B002F02D06648FEF719F80326EC
:10494000A76026702F68266BB246AF4204D0AE69CE
:10495000BF68B668BE425FD362B6E76A666A7F68C0
:104960003E60F8607960A16A206A49680860CA60A0
:104970004B60594B5A6A72B6296B0029DCD1696BBE
:104980000029D9D1013169635146802789693F02E5
:10499000394244D0F42091B25A6AFF30521A92B28E
:1049A000824220D8002294460132904662466A63D1
:1049B0002A68AA4204D0AE699268B66896422BD3A0
:1049C00062B672B62A6B002AB6D16A6B002AB3D1DE
:1049D00042466A63524692693A4220D05A6A521A53
:1049E00092B28242E2D905230120237040422B6B10
:1049F000002B46D16A6B002A43DD6B632B68AB4208
:104A000004D0AA699B6892689A4252D362B61CBCD1
:104A100090469946A246F0BD3048FDF7A9FF63686D
:104A2000226B9868030541D410235360E36A5F68E2
:104A30007B68FF2B35D80021894656681B04B04699
:104A4000274EB446464661460E4049463043014330
:104A50000B43536001223B6813433B6053461B6882
:104A60003F3213435246136053688022920113432E
:104A700052465360E269AB69002A05D01948FDF738
:104A800077FF1948FDF774FF221C1C32E3615A625C
:104A900003202821FEF70CFA431C0DD002232370BB
:104AA000A5E780214904FF238946C6E70823536010
:104AB000BCE70E48FDF75CFF534680225B68D201DD
:104AC0001343524653608EE7840F0020E05A0008DB
:104AD000000700200858000800040040185B000888
:104AE000FFFF00FEC85A0008105800080C5B0008C1
:104AF000354B70B51A6B041C9D69002A31D15A6B75
:104B0000002A2EDD1A68A9689A4202D09268914262
:104B10002DD30020A268606291422BD22026AA5D8C
:104B2000002A21D00F2A1FD01A1CA855126890689D
:104B30008142FBD351682A6069600D605560202175
:104B400001226254188F9C61104224D0EFF3098334
:104B5000EA69243B9A4233D8201C291CFBF71CFB32
:104B600070BD1A48FDF704FF1948FDF701FF194809
:104B7000FDF7FEFE2025615D00291ED00F291CD007
:104B800060551B6899689142FBD25A682360626045
:104B900014605C60E4E70726DB6B1878B0430243DF
:104BA0001A70695CD2B2C90032400A431A709C6024
:104BB0006A6ADA60FDF7C4FEC8E70748FDF7D8FE69
:104BC0000648FDF7D5FEC04600070020F45800084F
:104BD000A85A0008FC5A0008BC5A0008E45800080B
:104BE000F0B5454657464E46E0B486B002AB0D1CC4
:104BF000187072B6D24C236B002B02D1636B002B62
:104C000002D0D048FDF7B4FECF4F0123381C0C3042
:104C10006363FEF7BDFD236B002B00D082E1626B66
:104C2000002A00DC7EE163632368A34205D0A26909
:104C30009B6892689A4200D2B0E162B605AC221C31
:104C40000423012102A8FFF75BFE8146381C0C30CB
:104C5000FEF7DEFC112303A8037002782378D7093E
:104C60009A4643700023002F00D095E107275B0090
:104C7000DBB2DEB27740510600D58BE107265F003C
:104C8000FFB25BB27E40002B00DA8CE10723FEB25C
:104C90007340910600D57BE107267B00DBB27FB233
:104CA0005E40002F00DA7CE10727DEB27740D106B4
:104CB00000D56BE107265F00FFB25BB27E40002BA0
:104CC00000DA74E10723FEB27340110700D55BE1FF
:104CD00007267B00DBB27FB25E40002F00DA64E182
:104CE0000727DEB27740510700D54BE107265F006A
:104CF000FFB25BB27E40002B00DA74E10723FEB204
:104D00007340910700D53BE107267B00DBB27FB201
:104D10005E40002F00DA64E10727DEB27740D20759
:104D200000D52BE107265F00FFB25BB242787E40E0
:104D3000002B00DA5BE13B1C0727DEB27E40D7097F
:104D400000D019E107265F00FFB25BB27E40002B66
:104D500000DA4AE10723FEB27340510600D509E1AB
:104D600007267B00DBB27FB25E40002F00DA32E123
:104D70000727DEB27740910600D5F9E007265F00ED
:104D8000FFB25BB27E40002B00DA22E10723FEB2C5
:104D90007340D10600D5E9E007267B00DBB27FB285
:104DA0005E40002F00DA1AE10727DEB277401107D4
:104DB00000D5D9E007265F00FFB25BB27E40002B32
:104DC00000DA0AE10723FEB27340510700D5C9E0BB
:104DD00007267B00DBB27FB25E40002F00DAF2E0F4
:104DE0000727DEB27740910700D5B9E007265F00BC
:104DF000FFB25BB27E40002B00DAE2E03B1C0727EB
:104E0000DEB27740D20700D5A8E004AA1370A778D5
:104E1000002307700078C60900D09DE007265B00DC
:104E2000DBB2D9B24E40410600D593E007215E00C7
:104E3000F6B25BB27140002B00DAC8E0331C0726E3
:104E4000D9B271401E1C830600D581E00721730092
:104E5000DBB259408C4671B2002900DAB5E0072672
:104E6000D9B271401E1CC30667D407217300DBB2A0
:104E70005940884671B2002900DAA0E00726D9B26D
:104E800071401E1C030756D407217300DBB2594042
:104E90008C4671B2002900DA8FE00726D9B2714042
:104EA0001E1C430745D407217300DBB259408846D6
:104EB00071B2002900DA7EE0D9B2884607218C461B
:104EC0004146664671408C46810730D46E46590093
:104ED000F171F1795BB28C46072166467140002B77
:104EE00067DB6346D9B2884607218C464146664651
:104EF00071408C46C10718D453701378607898427B
:104F000000D076E05378E2789A4200D071E05346C0
:104F100048461902CF192F8006B01CBC904699460E
:104F2000A246F0BD0948FDF723FD6346E4E763466A
:104F3000CCE70E1CB7E70E1CA6E70E1C95E7C04693
:104F40000007002008580008840F002010580008AF
:104F50000E1C7BE7331C69E707235FE73B1C54E724
:104F60003B1C43E71F1C33E73B1C23E71F1C13E7D5
:104F70003B1C03E71F1CF3E6331CE3E63B1CD1E6B6
:104F80001F1CC1E63B1CB1E61F1CA1E63B1C91E6C1
:104F90001F1C81E63B1C71E6072367E61648FDF7F8
:104FA000E7FC331C80E6371C70E6331C98E6371CA0
:104FB00088E60B1C96E743467EE763466DE743466B
:104FC0005CE7331C1BE7331C0AE7634647E70B1C0F
:104FD00035E7371CDAE6331CCAE6371CF2E6331C29
:104FE000E2E6331C98E6371C88E6371CB2E6331C31
:104FF000A2E6012040428FE7245B00080000000089
:10500000F0B5454657464E463223E0B486B002AA74
:10501000051C137072B6D24C236B002B02D1636B4C
:10502000002B02D0CF48FDF7A3FCCF4F0123381C43
:105030000C306363FEF7ACFB236B002B00D082E1E6
:10504000626B002A00DC7EE163632368A34205D023
:10505000A2699B6892689A4200D2AFE162B605AC41
:10506000221C0423012102A8FFF74AFC8146381CB8
:105070000C30FEF7CDFA112303A8037002782378D1
:10508000D7099A4643700023002F00D094E10727E8
:105090005B00DBB2DEB27740510600D58AE107261D
:1050A0005F00FFB25BB27E40002B00DA8BE107238A
:1050B000FEB27340910600D57AE107267B00DBB291
:1050C0007FB25E40002F00DA7BE10727DEB2774037
:1050D000D10600D56AE107265F00FFB25BB27E40D1
:1050E000002B00DA73E10723FEB27340110700D5ED
:1050F0005AE107267B00DBB27FB25E40002F00DA68
:1051000063E10727DEB27740510700D54AE1072661
:105110005F00FFB25BB27E40002B00DA73E1072331
:10512000FEB27340910700D53AE107267B00DBB25F
:105130007FB25E40002F00DA63E10727DEB27740DE
:10514000D20700D52AE107265F00FFB25BB24278A2
:105150007E40002B00DA5AE13B1C0727DEB27E407E
:10516000D70900D018E107265F00FFB25BB27E408E
:10517000002B00DA49E10723FEB27340510600D547
:1051800008E107267B00DBB27FB25E40002F00DA29
:1051900031E10727DEB27740910600D5F8E0072617
:1051A0005F00FFB25BB27E40002B00DA21E10723F3
:1051B000FEB27340D10600D5E8E007267B00DBB2E3
:1051C0007FB25E40002F00DA19E10727DEB2774098
:1051D000110700D5D8E007265F00FFB25BB27E4022
:1051E000002B00DA09E10723FEB27340510700D516
:1051F000C8E007267B00DBB27FB25E40002F00DAFA
:10520000F1E00727DEB27740910700D5B8E0072626
:105210005F00FFB25BB27E40002B00DAE1E03B1C96
:105220000727DEB27740D20700D5A7E004AA1370A3
:10523000A778002307700078C60900D09CE00726F5
:105240005B00DBB2D9B24E40410600D592E00721A7
:105250005E00F6B25BB27140002B00DAC7E0331C8F
:105260000726D9B271401E1C830600D580E00721B5
:105270007300DBB259408C4671B2002900DAB4E009
:105280000726D9B271401E1CC30667D407217300DC
:10529000DBB25940884671B2002900DA9FE0072648
:1052A000D9B271401E1C030756D407217300DBB22C
:1052B00059408C4671B2002900DA8EE00726D9B237
:1052C00071401E1C430745D407217300DBB25940CF
:1052D000884671B2002900DA7DE0D9B288460721FC
:1052E0008C464146664671408C46810730D46E46F6
:1052F0005900F171F1795BB28C4607216646714025
:10530000002B66DB6346D9B2884607218C464146AE
:10531000664671408C46C10718D453701378607884
:10532000984200D075E05378E2789A4200D070E05D
:10533000534648461902CF192F8006B01CBC904630
:105340009946A246F0BD0948FDF712FB6346E4E723
:105350006346CCE70E1CB7E70E1CA6E70E1C95E7CC
:105360000007002008580008840F0020105800088B
:105370000E1C7CE7331C6AE7072360E73B1C55E7FC
:105380003B1C44E71F1C34E73B1C24E71F1C14E7AD
:105390003B1C04E71F1CF4E6331CE4E63B1CD2E68E
:1053A0001F1CC2E63B1CB2E61F1CA2E63B1C92E699
:1053B0001F1C82E63B1C72E6072368E61648FDF7D1
:1053C000D7FA331C81E6371C71E6331C99E6371C8B
:1053D00089E60B1C97E743467FE763466EE7434643
:1053E0005DE7331C1CE7331C0BE7634648E70B1CE7
:1053F00036E7371CDBE6331CCBE6371CF3E6331C01
:10540000E3E6331C99E6371C89E6371CB3E6331C08
:10541000A3E60120404290E7245B00080000000062
:10542000F0B55C4F85B001AD287002AC381C0E1C85
:10543000FEF75EFA0121221C0223281CFFF760FA06
:10544000051C381CFEF7E4F81C230727DBB25A00C2
:10545000207803A9D2B25BB248705740002B00DA23
:1054600086E0131C07275A00D2B25BB25740002BCC
:1054700000DA79E00727D2B27A405300DBB25F400E
:1054800052B24978FFB2002A00DA81E00722DFB287
:105490005740CA0900D03B1C07275A00D2B25BB262
:1054A0005740002B00DA71E00723D7B27B404F064C
:1054B00000D51A1C07275300DBB252B25F40002A06
:1054C00062DB0722DFB27A408F0600D5131C072764
:1054D0005A00D2B25BB25740002B53DB0723D7B23E
:1054E0007B40CF0600D51A1C07275300DBB252B20F
:1054F0005F40002A44DB0722DFB27A400F0700D565
:10550000131C07275A00D2B25BB25740002B35DB81
:105510000723D7B27B404F0700D51A1C072753003B
:10552000DBB252B25F40002A26DB0722DFB27A40AC
:105530008F0700D5131C07275A00D2B25BB2574021
:10554000002B17DB131C0722DFB27A40C90700D5F6
:10555000131C6278DBB29A4208D090234022DB050C
:105560001A83281C05B0F0BD3A1C83E73070F8E7B9
:105570003B1C77E73B1CE6E73B1CD6E73A1CC7E73A
:105580003B1CB8E73A1CA9E73B1C9AE73A1C8BE79F
:105590003B1C7BE7900F002070B583073FD0541E63
:1055A000002A3BD0CEB2031C032503E0621E002C70
:1055B00034D0141C01335A1E16702B42F6D1032C22
:1055C00024D9FF250D402A0215432A0415430F2C28
:1055D00011D9261C103E3609013636011A1C9B19BA
:1055E000156055609560D56010329342F8D10F2256
:1055F0001440032C0AD9261FB6080136B6001A1C1F
:105600009B1920C29342FCD103221440002C05D0E8
:10561000C9B21C1919700133A342FBD170BD141C0F
:04562000031CCCE7B4
:105624003A030008020300081E030008F6020008FB
:105634001E030008620200081E030008F6020008A8
:10564400020300080203000862020008F6020008D0
:10565400A0030008A0030008A00300082403000816
:105664000203000802030008EA030008F402000829
:10567400EA03000862020008EA030008F4020008D2
:10568400020300080203000862020008F402000892
:10569400A0030008A0030008A0030008CE0300082C
:1056A4008E05000886050008860500087E050008AA
:1056B400D0040008D0040008740500087E05000822
:1056C400D004000874050008D00400087E05000812
:1056D400D2040008D2040008D20400081806000806
:1056E4008C0800087A0700086008000866070008AC
:1056F400600800086A0800086008000866070008D7
:105704007A0700087A0700086A0800086607000894
:10571400700700087007000870070008D20A000824
:10572400EC0E0008CA0E0008CA0E0008BE0E0008DF
:10573400B20D0008B20D0008B20E0008BE0E00083B
:10574400B20D0008B20E0008B20D0008BE0E00082B
:10575400B60D0008B60D0008B60D0008CC10000800
:10576400120F005000000000000000006164635F3D
:105774006C6C645F696E6974000000000000024094
:10578400080002400100000000000009000002407F
:105794001C000240060000000004010A0000024050
:1057A40030000240060000000008020A0000024027
:1057B4004400024078000000000C030B000002408B
:1057C40058000240780000000010040B6164635F1D
:1057D4006C6C645F73746172740000006D61696E57
:1057E40000160330040244080C1014181C20212253
:1057F4000000000069646C65000000006E6F6E615B
:105804006D650000535623340000000053562335C1
:10581400000000006932635F6C6C645F73746172D2
:1058240074000000636854686443726561746500C1
:1058340061646353746172740000000063685468A7
:105844006443726561746553746174696300000034
:105854006368537973556E6C6F636B006368537937
:1058640073556E6C6F636B00693263537461727449
:1058740000000000DA310008E8310008E8310008CF
:10588400E2310008963100088C310008E831000844
:1058940096310008636854686452656C6561736589
:1058A400000000006368506F6F6C467265654900C4
:1058B4006368486561704672656500006368526597
:1058C400674E6578745468726561640063685379DF
:1058D40073556E6C6F636B005356233130000000B8
:1058E400737461636B206F766572666C6F7700000A
:1058F4005356233131000000535623360000000074
:1059040053562337000000006368537973556E6C57
:105914006F636B006368546864457869745300006E
:105924006368436F7265416C6C6F63416C69676E49
:105934006564576974684F6666736574490000004E
:1059440063684D7478556E6C6F636B00636856546E
:10595400446F5365744900007374536574416C61FA
:10596400726D0000636854696D6541646458000099
:105974006261744C454400007374537461727441E1
:105984006C61726D000000006368537973556E6C2E
:105994006F636B0063684D74784C6F636B530000E6
:1059A40063685654446F5469636B49005665637465
:1059B4006F72383000000000566563746F723634BD
:1059C40000000000535623380000000053562339CA
:1059D40000000000646D6153747265616D416C6C0C
:1059E4006F634900566563746F72394300000000A9
:1059F4006368546864526573756D654900000000FE
:105A0400566563746F723643000000005665637414
:105A14006F72373000000000305B0008B80F0020C0
:105A2400B80F0020B80F0020305B00080000000011
:105A34000000000000000000305B000800000000CF
:105A44000000000000000000305B000800000000BF
:105A54000000000000000000305B000800000000AF
:105A64000000000000000000305B0008000000009F
:105A74000000000000000000305B0008000000008F
:105A84000000000000000000305B0008000000007F
:105A94000000000000000000566563746F72363821
:105AA400000000006368536368526561647941686B
:105AB400656164490000000063685363685265616E
:105AC40064794900636854686453757370656E64DF
