:020000040800F2
:100000000002002091010008012700089301000868
:100010009301000893010008930100089301000870
:100020009301000893010008930100089301000860
:100030009301000893010008930100089301000850
:100040009301000893010008930100089301000840
:100050009301000893010008930100089301000830
:100060009301000821220008312F0008112E0008FA
:10007000912B0008930100089301000893010008E8
:10008000E11B000893010008930100089301000898
:10009000930100089301000893010008B11D0008B6
:1000A00093010008930100089301000893010008E0
:1000B00093010008930100089301000893010008D0
:1000C00072B6244880F30888234880F30988022008
:1000D00080F31488BFF36F8F03F01AF801F0D8FC97
:1000E0001E481F491B4A914202DA08600431FAE7B0
:1000F0001C49194A914202DA08600431FAE71A49A8
:100100001A4A1B4B9A4204DA086810600431043220
:10011000F8E700201749184A914202DA08600431D2
:10012000FAE702F0BDFF02F0EBFF144C144DAC42B5
:1001300003DA216888470434F9E700F059F8114CD4
:10014000114DAC4203DA216888470434F9E70F49BE
:1001500008470000000200200004002055555555B6
:100160000000002000020020D43900080004002014
:100170000004002000040020B80F0020C000000888
:10018000C0000008C0000008C0000008F1300008EE
:1001900096E700F000F8FEE7F0B544464D465646B7
:1001A0005F46F0B46B46CB60C3689D46F0BCA0468A
:1001B000A946B246BB46F0BD00F0F2FF62B6281C6D
:1001C000A047002001F0C4F901F002F801F040FA64
:1001D00000F0E6FF014A024B1360FEE704ED00E089
:1001E000000000800000000000000000000000008F
:1001F000F0B544465F4656464D46D24BD2499A6AC0
:10020000F0B40A439A62BC22996AD2030A409A6205
:100210009A6A1A690122002052421A611A69186109
:100220001A69CA49DA6880240A43DA608022D968E8
:10023000D2030A408021DA60DA68DA6949050A43A4
:10024000C349DA61DA690A68640022430A60C0229D
:10025000196A92000A40802195B089008A4203D031
:10026000802252021A6218628022B64B1202196A68
:10027000114207D18020196A800001431962196A6E
:100280000A431A620024B34BB34A5C601C601460DA
:10029000B24A9C601460B24A1C611460B14A9C610D
:1002A0001460B14A1C62146001229C62AF4B52423E
:1002B0005A600520032102F0CBFE0620032102F044
:1002C000C7FE0720032102F0C3FE0123A84FA94E59
:1002D0003B703B1C1833BB61FB61A74B02213C62A6
:1002E0000C203B637C60BC60FC603C617C61BE6256
:1002F000FC6202F0ADFE8021924B89009A690A43AC
:100300009A619B699D4B1C60B3680093002B00D0E1
:10031000C3E08022B36812061343B360B368002BB6
:1003200000D1BAE0331C9A68002AFCDB854B944A62
:100330009969944E0A4094499A619A698B46F16092
:10034000316192490025316302210122D86932705E
:10035000084375607561F561B562F562D8618C48D6
:10036000DB6983680B4383608A4B8B4898628B48B8
:10037000D8629D6110205D63DD605D605A611A6026
:1003800002F066FE864C874B0721E361236201235E
:100390005B4263620F3B238790336387824B246009
:1003A000E3632B1C6460A560258501331A01A21844
:1003B0002832107A88431072802BF6D124257B4A8C
:1003C0007B48002110607B48A94650607A4A7B48F0
:1003D00051601060101C0C30916010615161D06050
:1003E000774A216391444D46101C556228251030F0
:1003F00010611420A946906110388446D06171487C
:10040000914410629063101C4D463C30D063101C28
:1004100095621C2540301064101C156365464430FD
:10042000616391605161D1625563126052605064A2
:10043000654A6648A350664AA154664AA350012201
:10044000654BE150654BE150654B6649E254664BA4
:10045000E150083B6549E450654B6050654966488A
:10046000E450664B21500430236163612150A36145
:100470006349644BE1500433E254634A634B116AAD
:100480000B40136262B6624B181C994600F018FFCD
:10049000002805D05F4800F06BFE5F4800F068FE62
:1004A00055234A4613540130D828FAD172B600F0C9
:1004B0008FFE00F0D5FEAC234A464946D2506C323E
:1004C000103BCA50554B8022CB6700238B50544AB7
:1004D0004D4692468C2250468850982148468B3A89
:1004E000425002201831685401316B541B316A505C
:1004F00004396B5004396B50B233EA54494A0A3B11
:10050000EA504846A422083BEC5063699030AB5057
:100510004A461861B823B832EA504B46BC22BC3375
:10052000AB500432AB50606102F0F2FE00F0A8FE66
:1005300033785A1E012A79D9052B77D03A4800F032
:1005400017FEC04600100240FFFFA1FFFFFFBFFFE4
:10055000007000406C040020080002401C000240B3
:1005600030000240440002405800024000000240B7
:1005700078050020002401408A250000082701405A
:10058000FFFDFFFF840F0020900F0020005400406B
:1005900000580140000400405F090000FFFF000018
:1005A000000700201C0700204007002064040020F2
:1005B000B80F00200010002048040020712300081C
:1005C000000400201123000848080000680F0020E4
:1005D000610800007C080000780800007408000032
:1005E00062080000A03600085808000068080000F3
:1005F000540800006C0F00206C080000400F002021
:10060000000200205C08000000ED00E0FFFF00FF9A
:10061000A00400202037000808360008811A0008CE
:10062000B9010008B83600083837000872B600F083
:10063000CFFDD44B01227360336B357899461B682C
:1006400093434A461360012D2BD04A46B36A2432A5
:100650005B689A60F36A04325B689A607268CA4B9E
:1006600051680B4349460B60136801220B610B680C
:1006700013430B600223337000F092FD2368A34202
:1006800004D0A2699B6892689A423CD362B6BF4B81
:10069000181C984600F014FE002837D0BC4800F023
:1006A00067FD9A2380207362103B3362B94B80034D
:1006B0001A69B94902431A611A69114019611A6924
:1006C000DA6903210243DA61DB6902200022331C6C
:1006D00001F03EFDB06200287DD0281C03210022DD
:1006E000331C01F035FDF062002874D08023326A9B
:1006F0005B011A433262726A17201343032173624B
:1007000002F0A6FCA1E7A54800F032FDA423552283
:100710005B0041460A5401309842FAD172B600F0AB
:1007200057FD8E23424641465B00D250DC32103BDF
:10073000CA509B4A203BCA5000239946424649462C
:10074000F033D15051460C33D150842241467C3B8A
:1007500052008B50073AFF3A924650461F32FF3202
:10076000885422224846FF3288541B328B5042461E
:100770004946B833D150043BD15041460122123B87
:10078000CA54884A0A3BCA508A22083BCC50636943
:10079000481C52008B50FF30424618619423293286
:1007A000FF325B00CA50434696222D33FF3352007E
:1007B0008B5004328B50606102F0AAFD00F060FDA6
:1007C00072B600F005FD3B789846013B012B05D938
:1007D000754800F0CDFC754800F0CAFC4B467B60C4
:1007E0004346012B00D1F7E002233B7000F0D8FC18
:1007F0002368A34205D0A2699B6892689A4200D2FE
:1008000006E162B6C0226A4B12041A6072B600F0AA
:10081000DFFC90276749082000F07AFF202500F0D0
:100820002FFD4023FF057D839A467B838023012291
:100830007B839946604B5A83022298465A8372B64C
:1008400000F0C6FC5B49082000F062FF00F018FDD4
:1008500053463D833B834B4601223B8343461A83E9
:10086000022228201A830B2204A9091810230A70D7
:1008700029210FAF7A7004AA52183B700933BB705C
:10088000137000232239009A0826BA5C8020904613
:100890000A1C5D00EDB26A4091465AB2002A4ADB5A
:1008A0002B1C4546DAB24A40054200D0131C013EDB
:1008B000DBB24008002EEBD1009A01320092032AED
:1008C000E1D12A2104AA52185846137000F098FC6E
:1008D000321C331C00990EA802F022FC584601F08D
:1008E00017FF391C502002F08BFD0C233A78334D52
:1008F00013403B7059205B00391C2B7002F080FDC7
:100900001F233A781A402B783A7013432B701F2B11
:1009100013D86E33FF332A4A2A495120136002F05C
:100920006FFD72B6236B002B02D1636B002B07D0D7
:10093000254800F01DFC4B46B3E7C6235B00EAE701
:1009400001336363A36921493B61214BE269FB6089
:1009500020484B6A9BB2824200D104E2FA21208DEA
:1009600089001B1A9BB259188B4200D8EAE19368A0
:100970001268C91A9368994253D9BA424ED0C91A1B
:100980001268F7E77037000890C00000B805002033
:100990004437000800100240FFFFDFFF9C390008C9
:1009A00001240008C0360008643700080437000836
:1009B0000827014010270000000400489C04002084
:1009C000B0050020AC050020C83600080004004037
:1009D000C11900081C07002048465146D04A3B1C5C
:1009E00001F0B6FBF862002815D080214368CD4A9B
:1009F00089009A60CC4B9A690A439A619B694B467D
:100A0000BA6A13614346936011681942FCD0EBE661
:100A1000C64800F0ADFBC64800F0AAFBC54800F090
:100A2000A7FB53680F927B601F605760B9609368A3
:100A3000591A01235B4291606362236BA569002B05
:100A400000D0A9E1636B002B00DCA5E12022082384
:100A50002068AB5403685C602360012398464146DC
:100A60008354238FA0610B4213D10726E36BB44656
:100A70001978B14346460E431E706646AA5C9860DC
:100A8000D1001A7832400A431A706A6ADA6000F0BC
:100A900057FBEFF30983EA69243B9A4200D9B1E19D
:100AA000A069291CFFF778FB206B002800DAA6E17B
:100AB000636B002B00DCA2E1129B002B12D0E369D8
:100AC000BB4200D16BE17A680F9B13600F9B5A60A9
:100AD0000022FA60984A934204D0B9689A688C461A
:100AE00062449A60002800D017E123686063A34243
:100AF00005D0A2699B6892689A4200D285E162B6ED
:100B0000012572B6236B002B00D011E7636B002B1D
:100B100000D00DE7FA2108208900656300F0F8FD98
:100B2000236B002B00D0F8E0626B002A00DCF4E0BD
:100B300063632368A34205D0A2699B6892689A42C6
:100B400000D262E162B604AB9C46112600226644E4
:100B5000327094461022202305210DA802704222F3
:100B6000009604AEF6184170317004AB1C315B186E
:100B70001A70634682701A396246825C161C08221B
:100B80009046783292465A00D2B25BB291464A40C1
:100B9000002B00DAB9E04B46DAB24A4091465246A1
:100BA000164200D04B46524652089246012252420B
:100BB0009146C8444246DBB2002AE4D10132914654
:100BC000CC446246032AD7D1222104AA52181370BA
:100BD00072B6236B002B00D0AAE6636B002B00D00B
:100BE000A6E65846656301F053FE236B002B00D048
:100BF00093E0636B002B00DC8FE043466363236864
:100C0000A34205D0A2699B6892689A4200D281E013
:100C100062B600220321131C0CA802F081FA584688
:100C200001F076FD90231022DB051B6913406ED086
:100C3000009B1D70009B1B78002B00D161E705AB6A
:100C4000994632234A4604A913708C461222002387
:100C50006244137013226244137072B6236B002B2C
:100C600000D065E6636B002B00D061E658466563F3
:100C700001F00EFE236B002B4FD1626B002A4CDD7E
:100C800063632368A34204D0A2699B6892689A4276
:100C900040D362B604233A1C0121484602F040FAD0
:100CA000584601F035FD112309A803703B78002256
:100CB00002934370072301934346C35C03930823C5
:100CC000994678339A4653000199DBB252B25940A3
:100CD000002A00DA0B1C56460199DAB24A40039901
:100CE000314200D0131CDAB253465B089A46012306
:100CF0005B429C46E1444B46002BE4D14346012B2A
:100D000000D185E001239846D6E7131C44E7009AFA
:100D100013708FE7094800F02BFA094800F028FA11
:100D2000F129000840240140001002402C3700083F
:100D300080360008583700081C070020F8360008E5
:100D4000F03600089368994200D313E6B24D0B1EAB
:100D5000AB4200D92B1CC318B0489BB2C568AD0785
:100D600014D5436306E6FA22920094460F90786009
:100D70000220BA60CA6823856344E76127629BB298
:100D8000024006D14B630A61C86056E6A44800F0F1
:100D9000EFF9A44800F0ECF9A34800F0E9F93B684A
:100DA000A24AE3615A600022A049FA608B4223D034
:100DB0009968BA688C4662449A60984B258D596A46
:100DC000491B89B28A4200D88CE6531A012B0CD9F0
:100DD000131E914A934200D9131C904AEB18D16814
:100DE0009BB28907D2D553637CE68B4A8B1C934216
:100DF000F3D98F4800F0BCF9884BDA6072E68D4871
:100E000000F0B6F98C4800F0B3F98C4800F0B0F966
:100E10000AA90A70BA784B4602709246027801928B
:100E20000822904678329446793A914660465A00B4
:100E3000D2B294464A46664672401B0679D463464F
:100E40004E46DAB27240019E064200D0131C0122C7
:100E500052429446E0444246DBB24008002AE6D1C2
:100E60004B700B787A789A4208D14B78FA789A428C
:100E700004D1029B0BAA1B025344138006AB994674
:100E800032234A46137072B6236B002B00D04FE515
:100E9000636B002B00D04BE55846656301F0F8FC0E
:100EA000236B002B00D038E7626B002A00DC34E7AC
:100EB00063632368A34205D0A2699B6892689A4243
:100EC00000D227E762B601210EAA0223484602F0AB
:100ED00027F9584601F01CFC112328223B7004AB73
:100EE0009B181978213A002394468A467970424625
:100EF000BA5C082101928022101C5A00D2B291469D
:100F000062464E465BB27240002B14DB4B4666468F
:100F1000DAB27240019E064200D0131C0139DBB2E6
:100F200040080029E9D14246012A06D00122904614
:100F3000DDE7131C84E7131CE9E7292004AA121833
:100F40001278894651469A4260D090234022DB05B0
:100F50001A8307AB984633234246137072B6236B4D
:100F6000002B00D0E4E4636B002B00D0E0E4584693
:100F7000656301F08DFC236B002B00D0CDE6626B26
:100F8000002A00DCC9E663632368A34205D0A26996
:100F90009B6892689A4200D2BCE662B601210EAA12
:100FA0000223404602F0BCF8584601F0B1FB112381
:100FB00028223B7004AB9B181978213A00239046F5
:100FC0008A4679704A46BA5C082001928022111C38
:100FD0005A00D2B29446424666465BB27240002B3B
:100FE00012DB63464646DAB27240019E0E4200D0E2
:100FF000131C0138DBB249080028E9D14A46012A0E
:101000001ED001229146DDE7131CEBE704AA0F2353
:101010009446634419709CE7FFFF00000004004001
:101020001437000890360008D03600081C0700204E
:1010300024360008E8360008D836000818360008BC
:10104000292604AA9219127851469A4272D0902306
:101050004022DB051A8304A98C461E220BAB1B8899
:101060006244138010221023BA700A1C28213B709E
:101070000023521813706246013152181939117049
:1010800007217B703A5C8026904608228146B44650
:10109000101C5A00D2B25BB292464A40002B47DB8A
:1010A0005346DAB24A40924646466246164200D05D
:1010B0005346624601385208DBB294460028E8D114
:1010C000021C484601300328DCD12A21904604AA9C
:1010D0005218137072B6236B002B00D028E4636B98
:1010E000002B00D024E45846656301F0D1FB236B4C
:1010F000002B00D011E6636B002B00DC0DE64346AD
:1011000063632368A34205D0A2699B6892689A42F0
:1011100000D2FFE562B600220321131C0EA801F0E5
:10112000FFFF584601F0F4FA0023009A1370E8E438
:10113000131CB6E708AB19708DE7C046000000002D
:10114000084A0949D36B496A998019781960842142
:101150000901103351188B4201D3131C4033D36360
:101160007047C04600070020000400400000000057
:1011700038B5051C72B6094C238F5B0701D5E562B3
:10118000FEE707200422E16B0B788D608343134355
:1011900003400B70FFF7D4FFE562F1E70007002082
:1011A00008B5064B1A6B002A04D1596B002901DDE2
:1011B0005A6308BD0248FFF7DBFFC0460007002066
:1011C000F0360008000000000000000000000000F1
:1011D00008B5064B1A6B002A02D15A6B002A02D0BE
:1011E0000348FFF7C5FF01225A6308BD000700202E
:1011F000C8360008000000000000000000000000E9
:1012000010B572B6124C236B002B02D1636B002B0E
:1012100002D01048FFF7ACFF0123636301F038FBF5
:10122000236B002B0DD1626B002A0ADD63632368F8
:10123000A34204D0A2699B6892689A4204D362B622
:1012400010BD0548FFF794FF0448FFF791FFC04623
:1012500000070020C8360008F0360008F8360008FD
:1012600008B5054B1A6B002A03DB5B6B002B00DD16
:1012700008BD0248FFF77CFF00070020E8360008A1
:1012800008B50C4B1A6B002A0DD1596B00290ADDE9
:101290005A631A689A4204D09B6999689368994284
:1012A00004D362B608BD0448FFF762FF0348FFF7A6
:1012B0005FFFC04600070020F0360008183600081F
:1012C000F0B54D465F4656464446F0B4051C83B023
:1012D00072B6FFF77DFF2222904C2769BB5C013379
:1012E000BB54FFF75DFF2368A34204D0A2699B684B
:1012F00092689A4227D362B601239B462033222666
:101300009946FB69AB4245D072B6236B002B02D1E4
:10131000636B002B02D08248FFF72AFF5A466263B4
:101320003A699046A24243D0935DFF2B3AD00133F5
:101330009355002363632368A34207D0A2699B6887
:1013400092689A4202D27748FFF712FF62B672B6ED
:10135000236B002BDFD1636B002BDCD15A46626319
:10136000BA5D002A21D0013ABA55396A6E4A0A405C
:101370000F2A1FD063632368A34204D0A2699B682D
:1013800092689A4245D362B64346002B00D18AE068
:101390004746B6E7381C03B03CBC90469946A24687
:1013A000AB46F0BD6148FFF7E3FE6148FFF7E0FEA2
:1013B0009846BEE739697A69116139694A616363A0
:1013C0002368A34204D0A2699B6892689A4220D302
:1013D00062B64B46FA5C03231340012B1CD0022B50
:1013E000D2D13A6CF96972B6236B002B00D092E728
:1013F000636B002B00D08EE75B466363002A05D049
:10140000002903D09368013B0B406FD04948FFF798
:10141000AFFE4948FFF7ACFEFA69002A02D0072167
:101420000A4202D04548FFF7A3FE083A171C12688B
:1014300092467A680732D2087A6072B6226B002A26
:1014400000D068E7626B002A00D064E70C32524497
:10145000101C6363019201F01BFA236B002B56D121
:10146000626B002A53DD63632368A34204D0A26940
:101470009B6892689A424DD35146043162B60B1C68
:101480009F4205D35A680132D2009A189742C9D3B5
:101490001A68994201D09F4203D9002A05D0974289
:1014A00003D3131CECE7404675E779683A601F6088
:1014B0004A1CD2003868BA18824206D150681268B5
:1014C00084466144013179603A605A68511CC90010
:1014D00059188F4206D179688C46624401325A60AD
:1014E0003A681A60019801F013F94DE71068086036
:1014F000116063632368A34200D144E7A2699B683B
:1015000092689A4200D33EE70D48FFF731FE0D483E
:10151000FFF72EFE0C48FFF72BFEC0460007002009
:10152000C8360008D4370008FF00FF00C4370008A1
:101530009C370008AC37000818360008B837000898
:10154000F0370008F0360008F83600080000000008
:10155000F8B572B6394C236B002B02D1636B002BAC
:1015600002D03748FFF704FEA56901232E1CAA6AA2
:10157000283663636862B24224D01368AB622023CA
:10158000D15C00291BD00F2919D0181C00239C46C0
:1015900063461354231C91681B689F688F42FBD2DB
:1015A0005968136051600A605A60AA6AB24209D051
:1015B0001368AB62135C002B01D00F2BE8D12148DC
:1015C000FFF7D6FD2223EB5C002B08D12123EB5C37
:1015D0009B0704D12A696B691A612A695361202229
:1015E0000F23AB54236819684C6021600121995482
:1015F000208FA36108420CD0EFF30983EA69243BF2
:101600009A4218D8A069291CFEF7C6FD0E48FFF7BC
:10161000AFFD0727E06B0678BE4331430170A95C3C
:101620000278C9003A400A43027083606B6AC36063
:10163000FFF786FDE0E70548FFF79AFD0007002069
:10164000C836000878390008FC370008D83600088A
:1016500001202021F8B5294C2268A56913685C6037
:101660005054206B2360A261002827DB606B0028A8
:1016700024DD002D1FD0685C00281CD00F281AD054
:1016800000206854A96800E01B6898688842FBD86D
:1016900059682B6069600D605D60238FDB0713D58F
:1016A000EFF30983EA69243B9A420AD8291CA0690E
:1016B000FEF772FDF8BD1248FFF75AFD1148FFF71B
:1016C00057FD1148FFF754FD072701262021E36B42
:1016D0001878B84330431870685C1978C0003940F6
:1016E000014319709A606A6ADA60FFF729FDEFF327
:1016F0000983EA69243B9A42D8D9E2E7000700202F
:1017000064390008E8360008D836000800000000F8
:10171000F0B5474680B49D4C86B0236B002B00D0BB
:101720009DE0636B002B00DC99E04B1C00D19CE03A
:10173000A369002900D195E001AD2B61944BEB60CA
:10174000944B5A6AE36992B2012900D1ADE0261C9C
:101750001C36B34200D1C3E0268D921B92B2891889
:101760008A4200D999E09A68914213D2894FFF6862
:10177000BF0700D4D5E0884F8846B94200D9B846A3
:101780004644844FB6B27E6304E0AB426AD01B6825
:10179000891A9A689142F8D85A6801936A6015606C
:1017A0005D60A9609A68511A996001235B42636287
:1017B000236BA669002B52D1636B002B4FDD2022D7
:1017C0002368B05419684C60216001219954208F1E
:1017D000A361014214D10727E16BBC460878B843E6
:1017E000071C0120384367460870B05C0A78C000C7
:1017F0003A4002430A708B60736ACB60FFF7A0FC2B
:10180000EFF30983F269243B9A424BD8A069311C5B
:10181000FEF7C2FC236B002B00DA7FE0636B002B2A
:1018200000DC7BE0049B002B13D0E369AB4200D1CA
:101830007DE06A68019B1360019B5A600022EA60A8
:10184000221C1C32934204D09968AA688C466244D8
:101850009A60A369586A06B004BC9046F0BD4F4830
:10186000FFF786FC4E48FFF783FC20262168A56918
:101870000B68A85523605C6001238B55228FA16102
:10188000134218D0EFF30983EA69243B9A4209D83E
:10189000A069291CFEF780FCDBE79A681B68891A9F
:1018A0009A6877E73F48FFF763FC211C1C318B42A5
:1018B0002BD0022150E7072201279446E36B1878CA
:1018C000904338431870A85D66461A78C0003240CD
:1018D00002431A7099606A6ADA60FFF731FCD1E757
:1018E0002B606B602C4B2285E5612562A9601E1C74
:1018F000994211D902272749CB683B4014D1B2182D
:1019000092B24A630B61CF6052E702212285E56102
:1019100025622B606B60A9608EB2EBE72248FFF76F
:1019200027FC2248FFF724FC2148FFF721FC002375
:101930002968204AE1614A60EB60914222D0AB689D
:101940008A689A18134B8A60208D596A091A89B2DD
:101950008A4200D87DE7531A012B0CD9131E0E4A78
:10196000934200D9131C0B4AD1688907D9D5C318F3
:101970009BB253636DE7084A8B1C9342F3D90E4820
:10198000FFF7F6FB034AD36063E7C0460007002079
:10199000C119000800040040FFFF0000D036000815
:1019A00058370008D8360008E83600081437000811
:1019B000903600081C0700202436000800000000B4
:1019C00038B572B6274B196B002902DD5A6B002A15
:1019D00002D02548FFF7CCFB01225A631F32825CFC
:1019E000072A31D8214C9200A2589746416A8A684A
:1019F00001328A60196B426804681460046862608E
:101A0000012252424262002922DB5A6B002A1FDD6A
:101A10002024025D002A1ED00F2A1CD0002202556D
:101A20001A1C846812689568AC42FBD9546802603D
:101A3000446020605060002910D000225A6362B6D2
:101A400038BD0024426A1460012252424262DCE73F
:101A50000748FFF78DFB0748FFF78AFB0648FFF7AB
:101A600087FBC04600070020E03700087C370008ED
:101A7000E836000878390008E83700080000000060
:101A8000FEE7C0460000000000000000000000006B
:101A9000BC20474AC003916A30B501439162936A02
:101AA0004449454C19409162936A5369802103432C
:101AB0005361536990230120DB05C90059603F49F8
:101AC00040429860D9603E49882559618821490182
:101AD0001962002159621C60C0243A4B6D055C609C
:101AE000394C9860DC60394C5C611D62384D59623C
:101AF0001D60384B596098603748D8605C61196246
:101B0000596219600123022011680B4313601168A8
:101B1000274B0842FBD003215A680C208A43191C2A
:101B20005A604B68224A0340FBD1F92011680140FA
:101B30001160802180205360136849020B431360B9
:101B4000800211681A4B0142FBD00122596B02201E
:101B50000A435A631A1C516B154B0842FBD00122F1
:101B60000220596A0A435A625A6A11491042FBD04C
:101B70000223CB62A023DB024B6011230B63012104
:101B8000164A013B136013681942FCD101230C2053
:101B9000074A51680B435360536805490340042BBF
:101BA000FAD18A69033B13438B618B6930BDC04610
:101BB00000100240FFFFA1FFAC5420285555556589
:101BC0001FFF00000004004855555555FFFF000059
:101BD00005A00000000800485555550500200240AA
:101BE000F0B5454657464E46E0B4664C7546238FE1
:101BF0009B070DD472B607200222E16B0B7883435A
:101C0000134303400B70604B8B60FFF799FA62B689
:101C100072B6236B002B02DB626B002A02D05B489A
:101C2000FFF7A6FA0133236362B6594B1969890796
:101C300009D472B6236B002B02DD626B002A0DD033
:101C40005448FFF795FA1A6172B6226B002A02DD3A
:101C5000626B002A32D05048FFF78AFA013B2363B7
:101C600062B6238F9B0717D50F3510D072B6EFF3EE
:101C70000983203B83F3098880225204DA612168BA
:101C8000A26989689268914215D8444A9A611CBC3D
:101C900090469946A246F0BD72B607200322E16B3A
:101CA0000B788343134303400B70374B8B60FFF774
:101CB00047FA62B6D8E73A4A9A61E8E71E1C1C2345
:101CC0009846002701326263E269A044716A238D5D
:101CD00089B2C81A80B2814690688246814521D374
:101CE00041465344238513685960E361D168D76046
:101CF00043453DD0676362B61069884772B6236B6F
:101D0000002BA8DD636B002BA5D152464B469B1AD6
:101D100099460123E269636393689A469945D5D34E
:101D2000238DDDE7201C1C3082421DD04E4690687A
:101D30004B449BB2801B23859060CA1A92B2821AD0
:101D4000012A1AD91748824200D9021C1048C668D5
:101D5000B6070FD58A1892B24263416AC91AD31ADC
:101D60009BB28AB29A420AD80023636362B660E7E4
:101D7000F760BFE70C48FFF7FBF90222E6E70B48E4
:101D8000FFF7F6F900070020143800082C38000887
:101D90000004004034380008E0370008D40100088F
:101DA000C9010008FFFF00001437000808380008C8
:101DB000F8B54F464646C0B4BA4DBB4C2B6B774680
:101DC0009E69238F9B070DD472B607200222E16B18
:101DD0000B788343134303400B70B44B8B60FFF7C6
:101DE000AFF962B672B6236B002B02DB626B002A7E
:101DF00002D0AF48FFF7BCF90133236362B6FC227F
:101E00002B6B9201DE61164263D1FE22324209D170
:101E100072B6236B002B02DD626B002A2DD0A54821
:101E2000FFF7A6F9F20600D5CBE0320600D59EE01A
:101E30007206EDD52A78032A00D147E10F26AA6A57
:101E400050680168B1430160507B11680E228240E6
:101E50004A6080215A68C9010A4340215A601A68C1
:101E60008A431A6072B6236B002B03DD636B002B71
:101E700000D103E19048FFF77BF9013B236362B691
:101E8000238F9B070DD472B607200322E16B0B78DA
:101E90008343134303400B70844B8B60FFF750F96F
:101EA00062B60F3711D072B6EFF30983203B83F38C
:101EB000098880225204DA612168A26989689268DF
:101EC000914200D970E07D4A9A610CBC90469946D7
:101ED000F8BD0F20EB6A59680A6882430A601A68E5
:101EE00094465A7B0E23191C91400A1C61464A6095
:101EF000AA6A51688C46096881436046016011688E
:101F0000527B93404B60F30549D4AB68B20502D5D0
:101F100002221343AB60720549D508221343AB601C
:101F2000F20446D472B6236B002BA3DD636B002B47
:101F3000A0D101226263EA69002A14D02021505CFA
:101F4000032800D097E002204042EB6150625354D6
:101F5000231C91681B6898688842FBD213605968FB
:101F600051600A605A600023636362B650E72A78C2
:101F7000032A6FD0AA6A52685268FF2A65D80020E7
:101F8000160469685A688D688021C9000D434C4960
:101F900011402A1C0A43024332435A6038E70123A6
:101FA000AA681343AB60B1E7464A9A618DE7F20431
:101FB00003D520221343AB60B4E7002B00D127E701
:101FC000B0E70F26EA6A50680168B1430160116802
:101FD0008C46517B0E22101C8840011C60464160DB
:101FE000A96A486884460068B0436646306008685D
:101FF000497B8A4042600422A9680A438021AA6082
:102000005A68C9010A4346215A601A688A431A600D
:1020100072B6236B002B00DC2CE7636B002B00D027
:1020200028E701226263EA69002A9CD02639505CC5
:10203000032820D10538EB6150625354231C91686A
:102040001B6898688842FBD288E7FF268020360408
:10205000400496E7EA6A52685268FF2A6AD800206C
:1020600011046D685E68164AAD6832402A43024327
:102070000A435A60CCE61448FFF77AF801226263FB
:10208000EA69002A00D16EE72039505C0328F2D1BA
:102090005362EB615354231C91681B689868884213
:1020A000FBD25BE7840F0020000700205C380008AB
:1020B0002C38000834380008E0370008D401000844
:1020C000FFFF00FEC90100084C3800080F26EA6A2D
:1020D00050680168B1430160507B11680E22824054
:1020E0004A60AA6A52685168002900D1B1E6516875
:1020F000FF2924D80020844658680904804668686F
:1021000086688020C0003043814640460E4E06401F
:102110004846304366463043014359600121106808
:102120000143116080215A6889010A435A600423DF
:102130002B706DE6FF2180200904400491E7802088
:102140004004FF218446D7E7FFFF00FE00000000A7
:10215000F0B5444656464D465F46F0B483B0041C85
:102160000E1C90469946FFF77BF8042C0ED80122EE
:10217000171CA740234D2B683B420AD0002003B018
:102180003CBC90469946A246AB46F0BD1E48FEF7C1
:10219000EFFF1E4821018346019159448A4641467A
:1021A0000134E400615149463B432B60184B2C1924
:1021B000616059690A435A615B694346002B09D043
:1021C00052465346696892680833114215D06B68CD
:1021D0001F436F60019C0F20231C5B44191C5B682C
:1021E000497B1A6882431A600E2258468A40005979
:1021F0004260002250461A60C1E7D879311C00F0D5
:1022000027FFE4E76C0400203C3800083036000863
:10221000001002400000000000000000000000006C
:1022200038B5324C7546238F9B070DD472B6072004
:102230000222E16B0B788343134303400B702C4B5A
:102240008B60FEF77DFF62B672B6236B002B02DB5C
:10225000626B002A02D02748FEF78AFF013323630E
:1022600062B60E21244A13681940244B1B680B42A6
:1022700006D05160224A9368002B01D0D06898475D
:1022800072B6236B002B02DD626B002A02D01D4860
:10229000FEF76EFF013B236362B6238F9B070DD4CD
:1022A00072B607200322E16B0B788343134303408C
:1022B0000B700F4B8B60FEF743FF62B60F3510D0EB
:1022C00072B6EFF30983203B83F30988802252041E
:1022D000DA612168A26989689268914202D80A4A43
:1022E0009A6138BD094A9A61FBE7C04600070020A1
:1022F000203800082C380008000002400800024086
:102300006C04002034380008D4010008C90100081A
:10231000124B70B51A6B002A1BDB5B6B002B18DDB0
:10232000002913D04B1E194210D10D4A4C4215689A
:1023300018186E1E711821402040536808189842E2
:102340000AD8854208D81060081C70BD0548FEF701
:102350000FFF0548FEF70CFF0020F6E700070020FE
:102360006404002094380008E836000800000000EB
:1023700070B572B61A4B1C6B002C02D15C6B002C32
:1023800002D01848FEF7F4FE01245C6300291ED039
:102390004C1E21421BD1144D49422E682018B21800
:1023A00012190A40014068685118814212D88E42C1
:1023B00010D82960002159631968994204D09B699B
:1023C00098688B68984207D362B6101C70BD0748A6
:1023D000FEF7CEFE0022EDE70548FEF7C9FEC04637
:1023E00000070020C8360008640400209438000864
:1023F0008838000800000000000000000000000015
:10240000F0B544465F4656464D46F0B4A74CA84A40
:10241000A36989B09A6172B6236B002B02D1636BFA
:10242000002B02D0A348FEF7A3FEA34B012698463B
:1024300001235B429A4603339946A04F03ADA3693B
:102440009F492B6143466663EB604A6AE36992B237
:10245000BB4200D1D1E0208D121A8446994892B235
:102460001018824200D9BEE09A68904213D2CA681E
:1024700049460A4200D1DAE09349021E8A4200D955
:102480000A1C62448E4992B24A6304E0AB4200D116
:10249000ADE01B68801A9A689042F7D85A682B60A2
:1024A0006A6015605D60A8609A68121A9A60534667
:1024B0006362A3699B46236B002B00D09AE0636B99
:1024C000002B00DC96E02022082359468B54236819
:1024D00019684C609E542160218FA361314219D14B
:1024E0000720E16B8446019109788143081C01991A
:1024F000304308705846825C6046D100019A1278D9
:1025000002400A4301998B605B460A705B6ACB60AC
:10251000FEF716FEEFF309835A46D269243B9A422E
:1025200000D97EE0A0695946FDF736FE236B002BEB
:102530007ADB626B002A77DD069A002A11D0E26905
:10254000AA4200D17FE069682A680A602A6851605F
:102550000021E960BA4204D0A868916884466144C9
:102560009160002B69D163632368A34204D0A26900
:102570009B6892689A4263D362B690232022DB055F
:102580001A834A46514B1A8372B6236B002B00D034
:1025900048E7636B002B00D044E708204949666395
:1025A000FFF7B6F8236B002B47D1626B002A44DD9E
:1025B00063632368A34204D0A2699B6892689A422D
:1025C0003ED362B690232022DB055A834A463F4B16
:1025D0005A8372B6236B002B00D023E7636B002B6A
:1025E00000D01FE72BE79A681B68801A53E738482A
:1025F000FEF7BEFD3748FEF7BBFD4846314B22854E
:10260000AB60CB68E56125622F606F60034011D13C
:102610002C488446624492B24A630B614B46CB60BD
:1026200047E72D48FEF7A4FD2C48FEF7A1FD2C48F6
:10263000FEF79EFD2B48FEF79BFD2B48FEF798FD0D
:102640002A48FEF795FD00212A68E2615760E9609B
:10265000BA4228D09068A968844661449160228D6E
:102660009446174A506A6246801A80B2814200D866
:1026700077E70A1A012A0FD90A1E13498A4200D99C
:102680000A1C624492B294464A460D49C8681042F8
:10269000CDD062464A6364E70B49821C8A42F0D976
:1026A0001348FEF765FD064AD1605AE7000700208F
:1026B00074380008C8360008C11900081C0700203B
:1026C0000004004088130000FFFF000000040048E1
:1026D00058370008D0360008D8360008E836000819
:1026E0001437000890360008F03600081836000845
:1026F0002436000800000000000000000000000078
:10270000EFF30983203383F3098862B67047C0462C
:1027100070B5544CA369002811D072B6226B002A00
:1027200002D1626B002A02D04F48FEF721FD012141
:102730006163996B002902D08D689D4202D04B489D
:10274000FEF716FD8842FAD1C3680168AB63884280
:1027500033D0EE6B002B09D01A68934203D09268F5
:10276000964200D2161CDB68002BF5D10B68AE60D8
:10277000036058608B6B8160C36020238863CA5CF0
:10278000002A2AD00F2A28D00022CA54231C8A6883
:102790001B6898689042FBD25A680B604A60A56932
:1027A000116022685960A96893688B421BD8236B1B
:1027B000002B03D02E48FEF7DBFC8260636B002BFE
:1027C000F8DD002363632368A34204D0A2699B68F9
:1027D00092689A4204D362B670BD2648FEF7C8FCE0
:1027E0002548FEF7C5FC136801205C6023602023A8
:1027F000A261D054E85C00282ED00F282CD00020F5
:10280000E854231C1B6898688142FBD359682B60ED
:1028100069600D6001215D60238F0B4211D1072695
:10282000E36B1878B043084318701F31695C9A60F5
:10283000C80019783140014319706A6ADA60FEF7FE
:102840007FFCEFF30983EA69243B9A4207D8A06929
:10285000291CFDF7A1FCAAE70848FEF789FC0848F7
:10286000FEF786FC00070020C8360008683800081C
:10287000F036000878390008F83600086439000896
:10288000D836000800000000000000000000000032
:10289000F8B5534E051C336BB469002B42D1736BF2
:1028A000002B3FDD00283AD08268002A77D0202311
:1028B000A1689C4693688B4208D263469160D35CC2
:1028C000062B53D0072B42D0002B2ED02B1C03E01D
:1028D0009A68A1688A4202D31B689D42F8D15A685F
:1028E0002360626014605C60202206236562A3544A
:1028F000336819684E60316001219954308FB3619B
:10290000014251D0EFF30983E269243B9A4260D837
:10291000B069211CFDF740FCAB68A3425CD0314894
:10292000FEF726FC3048FEF723FC50681768076066
:102930001768786020201354331C1B689868814204
:10294000FBD91360596851600A605A60BEE753684A
:102950001068186010684360506A031C02E09F68AA
:102960008F42EED31B689842F9D1EAE753681068AA
:10297000186010684360506A031C02E09F688F4231
:1029800002D31B689842F9D15968136051600A60FC
:102990005A608268A16893688B428ED396E7A36BD6
:1029A0008460C360A063F8BD0727F16BBC4608785C
:1029B000B8430127384367460870A05C0A78C00016
:1029C0003A4002430A708B60636ACB60FEF7B8FB43
:1029D00098E70648FEF7CCFBA36BAB429FD1E2E73A
:1029E000000700207C380008D0360008D8360008E0
:1029F00038B5041C0B0719D40369002B0ED08A07C5
:102A00000DD51A78002A51D05B68002B06D004221D
:102A1000027098472378042B00D191E038BD4A0713
:102A2000FCD55B68002BF9D09847F7E7C36A0F2005
:102A300059680A6882430A60597B1A680E238B40E2
:102A40005360A26A93685B0718D423699B68002BC4
:102A500072D00522201C2270002198472378052B74
:102A600021D00023236172B6454B1A6B002A02DD88
:102A70005A6B002A0BD04348FEF77AFB102391686B
:102A80000B431021936093681942FCD1DDE70121CB
:102A900059636169002946D020200D5C032D52D076
:102AA0003948FEF765FB033B2370DAE70F25C26A5E
:102AB00050680168A9430160507B11680E22824072
:102AC0004A60A16A8A6852074ED45B68002B2ED0F8
:102AD0000422201C227098472378042B27D072B63A
:102AE000274B1A6B002AC6DD5A6B002AC3D101217D
:102AF00059636169002916D020200D5C032DCFD1C8
:102B000062614A620C5C002C37D00F2C35D00A541D
:102B10001A1C8868126894688442FBD20A60506864
:102B200048600160516000225A6362B676E7022372
:102B3000237000232361D2E702222361227092E7EF
:102B4000013B23706AE76261012464424C620C5CC1
:102B5000002C12D00F2C10D00A541A1C886812684E
:102B600094688442FBD2D9E710228868024310207F
:102B70008A608A681042FCD1A7E70448FEF7F8FA99
:102B800000070020E03700084C38000878390008BA
:102B9000F8B5564644465F464D46F0B4904C7646EE
:102BA000238F9B070DD472B607200222E16B0B78AE
:102BB0008343134303400B708A4B8B60FEF7C0FACC
:102BC00062B672B6236B002B02DB626B002A02D066
:102BD0008548FEF7CDFA0133236362B6834DAB6AB5
:102BE0002A691F681F60002A0CD010218A463942CA
:102BF00006D0E96A8B4649688C464968002955D158
:102C00003B0609D472B6236B002B02DD626B002AEF
:102C10002DD07748FEF7ACFA0F20EB6A59680A68A6
:102C200082430A60597B1A680E238B405360AA6A5C
:102C300093685B0700D594E02B699B68002B00D15B
:102C4000B4E00522281C2A70022198472B78052B16
:102C500000D1B2E000232B6172B6236B002B03DDA1
:102C6000636B002B00D185E06248FEF781FA013BDF
:102C7000236362B6238F9B0761D50F3610D072B6DF
:102C8000EFF30983203B83F3098880225204DA6141
:102C90002168A2698968926891425FD8564A9A6110
:102CA0003CBC90469946A246AB46F8BD61460968D1
:102CB00088460F21894641464846814388466146F9
:102CC00040460860594609680E208C465946497BA3
:102CD0008840614648609868410771D49368002B2A
:102CE00077D00522281C2A70012198472B78052BC4
:102CF00073D000232B6172B6236B002BB4DD636BA2
:102D0000002BB1D1012262636A69002A13D020210D
:102D1000505C03284ED1012040426B6150625354F5
:102D2000231C91681B6898688842FBD2596813601D
:102D300051600A605A600023636362B660E772B64E
:102D400007200322E16B0B788343134303400B708E
:102D5000244B8B60FEF7F4F962B68EE7274A9A613E
:102D60009EE7102391680B431021936093681942EA
:102D7000FCD161E7012262636A69002A12D0202136
:102D8000505C032816D104386B6150625354231CE5
:102D900091681B6898688842FBD25968136051603B
:102DA0000A605A600023636362B62BE702222B613C
:102DB0002A7051E71248FEF7DBF9033B2B7049E715
:102DC0005146986801431020996099680842FCD1E7
:102DD00084E702222B612A708DE7033B2B7088E782
:102DE00000070020C03800082C38000878050020B3
:102DF00034380008E0370008D4010008C901000891
:102E00004C38000800000000000000000000000036
:102E100038B53B4C7546238F9B070DD472B60720FF
:102E20000222E16B0B788343134303400B70354B55
:102E30008B60FEF785F962B672B6236B002B02DB5E
:102E4000626B002A02D03048FEF792F90133236307
:102E500062B60E222D4B1968090B11402C4A1268DC
:102E60000A4207D00A035A602A4A136A002B01D08B
:102E7000506A98470E22254B1968090C1140264AC2
:102E800012680A4207D00A045A60224A936A002B49
:102E900001D0D06A984772B6236B002B02DD626BBB
:102EA000002A02D01D48FEF763F9013B236362B696
:102EB000238F9B070DD472B607200322E16B0B789A
:102EC0008343134303400B700E4B8B60FEF738F9BE
:102ED00062B60F3510D072B6EFF30983203B83F34F
:102EE000098880225204DA612168A269896892689F
:102EF000914202D80A4A9A6138BD0A4A9A61FBE7B0
:102F000000070020B43800082C38000800000240F8
:102F1000440002406C04002058000240343800088D
:102F2000D4010008C90100080000000000000000F2
:102F300038B53B4C7546238F9B070DD472B60720DE
:102F40000222E16B0B788343134303400B70354B34
:102F50008B60FEF7F5F862B672B6236B002B02DBCE
:102F6000626B002A02D03048FEF702F90133236376
:102F700062B60E222D4B1968090911402C4A1268BD
:102F80000A4207D00A015A602A4A1369002B01D06D
:102F9000506998470E22254B1968090A1140264AA4
:102FA00012680A4207D00A025A60224A9369002B2B
:102FB00001D0D069984772B6236B002B02DD626B9B
:102FC000002A02D01D48FEF7D3F8013B236362B606
:102FD000238F9B070DD472B607200322E16B0B7879
:102FE0008343134303400B700E4B8B60FEF7A8F82E
:102FF00062B60F3510D072B6EFF30983203B83F32E
:10300000098880225204DA612168A269896892687D
:10301000914202D80A4A9A6138BD0A4A9A61FBE78E
:10302000000700204C3900082C380008000002403E
:103030001C0002406C0400203000024034380008BC
:10304000D4010008C90100080000000000000000D1
:1030500070B5104B03249C46FF23C0260440E400B7
:10306000A340820892006244B60095599D438B01AB
:10307000A340191C1F2329439151012203409A4068
:10308000131CC0224009800060445200835003603A
:1030900070BDC04600E100E000000000000000003C
:1030A00070B5114D2E1C80366868AC682A68A04245
:1030B0000AD2031C02CA02C3A342FBD3C3431C1996
:1030C000A4080134A4000019EB68984207D2C24357
:1030D000D218920801329200002100F04FFA103508
:1030E000B542E1D370BDC046CC38000800000000F6
:1030F000FEE7C046000000000000000000000000E5
:103100007047C04600000000000000000000000002
:103110007047C046000000000000000000000000F2
:10312000F0B557464E464546E0B4002909D0002880
:1031300007D0002B01D0002A03D06B4C2578022D3C
:1031400002D06A48FEF714F872B6694D2E6B002E55
:1031500002D16F6B002F02D06648FEF709F80326F4
:10316000A76026702F68266BB246AF4204D0AE69C6
:10317000BF68B668BE425FD362B6E76A666A7F68B8
:103180003E60F8607960A16A206A49680860CA6098
:103190004B60594B5A6A72B6296B0029DCD1696BB6
:1031A0000029D9D1013169635146802789693F02DD
:1031B000394244D0F42091B25A6AFF30521A92B286
:1031C000824220D8002294460132904662466A63C9
:1031D0002A68AA4204D0AE699268B66896422BD398
:1031E00062B672B62A6B002AB6D16A6B002AB3D1D6
:1031F00042466A63524692693A4220D05A6A521A4B
:1032000092B28242E2D905230120237040422B6B07
:10321000002B46D16A6B002A43DD6B632B68AB42FF
:1032200004D0AA699B6892689A4252D362B61CBCC9
:1032300090469946A246F0BD3048FDF799FF636875
:10324000226B9868030541D410235360E36A5F68DA
:103250007B68FF2B35D80021894656681B04B04691
:10326000274EB446464661460E4049463043014328
:103270000B43536001223B6813433B6053461B687A
:103280003F32134352461360536880229201134326
:1032900052465360E269AB69002A05D01948FDF730
:1032A00067FF1948FDF764FF221C1C32E3615A6274
:1032B00003202821FEF72CFA431C0DD00223237093
:1032C000A5E780214904FF238946C6E70823536008
:1032D000BCE70E48FDF74CFF534680225B68D201E5
:1032E0001343524653608EE7840F0020A83900082C
:1032F00000070020C83600080004004058390008C4
:10330000FFFF00FE84390008F03600089C390008F1
:10331000354B70B51A6B041C9D69002A31D15A6B6C
:10332000002A2EDD1A68A9689A4202D0926891425A
:103330002DD30020A268606291422BD22026AA5D84
:10334000002A21D00F2A1FD01A1CA8551268906895
:103350008142FBD351682A6069600D60556020216D
:1033600001226254188F9C61104224D0EFF309832C
:10337000EA69243B9A4233D8201C291CFCF70CFF35
:1033800070BD1A48FDF7F4FE1948FDF7F1FE194823
:10339000FDF7EEFE2025615D00291ED00F291CD00F
:1033A00060551B6899689142FBD25A68236062603D
:1033B00014605C60E4E70726DB6B1878B0430243D7
:1033C0001A70695CD2B2C90032400A431A709C601C
:1033D0006A6ADA60FDF7B4FEC8E70748FDF7C8FE81
:1033E0000648FDF7C5FEC04600070020D03600089D
:1033F00064390008C439000878390008D836000854
:10340000F0B55D4F85B001AD0C37287002AC381CAB
:103410000E1CFDF7F5FE0121221C0223281CFFF7DC
:103420007FFE051C381CFFF773F91C230727DBB24E
:103430005A00207803A9D2B25BB248705740002BE3
:1034400000DA86E0131C07275A00D2B25BB257405D
:10345000002B00DA79E00727D2B27A405300DBB2C2
:103460005F4052B24978FFB2002A00DA81E00722B9
:10347000DFB25740CA0900D03B1C07275A00D2B21E
:103480005BB25740002B00DA71E00723D7B27B40D4
:103490004F0600D51A1C07275300DBB252B25F401B
:1034A000002A62DB0722DFB27A408F0600D5131CA8
:1034B00007275A00D2B25BB25740002B53DB0723D9
:1034C000D7B27B40CF0600D51A1C07275300DBB2CA
:1034D00052B25F40002A44DB0722DFB27A400F0776
:1034E00000D5131C07275A00D2B25BB25740002BFD
:1034F00035DB0723D7B27B404F0700D51A1C0727BF
:103500005300DBB252B25F40002A26DB0722DFB253
:103510007A408F0700D5131C07275A00D2B25BB23E
:103520005740002B17DB131C0722DFB27A40C90774
:1035300000D5131C6278DBB29A4208D09023402257
:10354000DB051A83281C05B0F0BD3A1C83E73070F8
:10355000F8E73B1C77E73B1CE6E73B1CD6E73A1C49
:10356000C7E73B1CB8E73A1CA9E73B1C9AE73A1CA3
:103570008BE73B1C7BE7C046840F002070B58307B8
:103580003FD0541E002A3BD0CEB2031C032503E0DB
:10359000621E002C34D0141C01335A1E16702B42AC
:1035A000F6D1032C24D9FF250D402A0215432A0405
:1035B00015430F2C11D9261C103E36090136360151
:1035C0001A1C9B19156055609560D56010329342A6
:1035D000F8D10F221440032C0AD9261FB608013651
:1035E000B6001A1C9B1920C29342FCD1032214403E
:1035F000002C05D0C9B21C1919700133A342FBD1AC
:0836000070BD141C031CCCE793
:103608006164635F6C6C645F696E697400000000DC
:103618006368537973556E6C6F636B0063685469A4
:103628006D654164645800000000024008000240D3
:103638000100000000000009000002401C000240D8
:10364800060000000004010A0000024030000240A9
:10365800060000000008020A000002404400024080
:1036680078000000000C030B0000024058000240E4
:10367800780000000010040B6164635F6C6C645F89
:1036880073746172740000007374537461727441CE
:103698006C61726D000000006D61696E0016033088
:1036A800040244080C1014181C20212200000000F9
:1036B80069646C65000000006E6F6E616D650000E6
:1036C80053562334000000005356233131000000C4
:1036D800737461636B206F766572666C6F77000038
:1036E80053562331300000005356233500000000A4
:1036F8006368537973556E6C6F636B006932635FEF
:103708006C6C645F73746172740000007374536549
:1037180074416C61726D000063685468644372653B
:10372800617465006368537973556E6C6F636B00E1
:1037380069326353746172740000000063685468EE
:103748006443726561746553746174696300000051
:1037580063685654446F5365744900006164635349
:103768007461727400000000120F00500000000025
:10377800000000003A1A0008481A0008481A000811
:10378800421A0008F6190008EC190008481A00083F
:10379800F6190008636854686452656C656173655E
:1037A800000000006368506F6F6C467265654900E1
:1037B80063684865617046726565000063685265B4
:1037C800674E6578745468726561640063685379FC
:1037D80073556E6C6F636B00535623360000000000
:1037E80053562337000000006368537973556E6C95
:1037F8006F636B00636854686445786974530000AC
:1038080063685654446F5469636B49005665637422
:103818006F72383000000000566563746F7236347A
:103828000000000053562338000000005356233987
:1038380000000000646D6153747265616D416C6CC9
:103848006F6349006368546864526573756D6549B0
:1038580000000000566563746F7239430000000071
:1038680063684D7478556E6C6F636B006261744C5D
:103878004544000063684D74784C6F636B530000D7
:103888006368537973556E6C6F636B006368436F3D
:103898007265416C6C6F63416C69676E65645769EA
:1038A80074684F66667365744900000056656374F2
:1038B8006F72364300000000566563746F723730CC
:1038C80000000000D4390008B80F0020B80F00200D
:1038D800B80F0020D43900080000000000000000E4
:1038E80000000000D43900080000000000000000BB
:1038F80000000000D43900080000000000000000AB
:1039080000000000D439000800000000000000009A
:1039180000000000D439000800000000000000008A
:1039280000000000D439000800000000000000007A
:1039380000000000D439000800000000000000006A
:1039480000000000566563746F723638000000008E
:103958006368537973556E6C6F636B006368536368
:1039680068526561647941686561644900000000D6
:103978006368536368526561647949006368546891
:103988006453757370656E6454696D656F757453AF
:10399800000000006368537973556E6C6F636B00A9
:1039A8006932634D61737465725472616E736D69C7
:1039B8007454696D656F7574000000006368536323
:0C39C8006857616B6575705300000000CB
:04000005080001915D
:00000001FF
